{
  "_format": "hh-sol-artifact-1",
  "contractName": "Nuggets",
  "sourceName": "contracts/Nuggets.sol",
  "abi": [
    {
      "inputs": [
        {
          "internalType": "address",
          "name": "_stETHAddress",
          "type": "address"
        },
        {
          "internalType": "address",
          "name": "_stEthPriceFeedAddress",
          "type": "address"
        },
        {
          "internalType": "address",
          "name": "_goldPriceFeedAddress",
          "type": "address"
        }
      ],
      "stateMutability": "nonpayable",
      "type": "constructor"
    },
    {
      "anonymous": false,
      "inputs": [
        {
          "indexed": true,
          "internalType": "address",
          "name": "owner",
          "type": "address"
        },
        {
          "indexed": true,
          "internalType": "address",
          "name": "spender",
          "type": "address"
        },
        {
          "indexed": false,
          "internalType": "uint256",
          "name": "value",
          "type": "uint256"
        }
      ],
      "name": "Approval",
      "type": "event"
    },
    {
      "anonymous": false,
      "inputs": [
        {
          "indexed": true,
          "internalType": "address",
          "name": "previousOwner",
          "type": "address"
        },
        {
          "indexed": true,
          "internalType": "address",
          "name": "newOwner",
          "type": "address"
        }
      ],
      "name": "OwnershipTransferred",
      "type": "event"
    },
    {
      "anonymous": false,
      "inputs": [
        {
          "indexed": false,
          "internalType": "uint256",
          "name": "priceInUsd",
          "type": "uint256"
        }
      ],
      "name": "StethPriceUpdated",
      "type": "event"
    },
    {
      "anonymous": false,
      "inputs": [
        {
          "indexed": true,
          "internalType": "address",
          "name": "from",
          "type": "address"
        },
        {
          "indexed": true,
          "internalType": "address",
          "name": "to",
          "type": "address"
        },
        {
          "indexed": false,
          "internalType": "uint256",
          "name": "value",
          "type": "uint256"
        }
      ],
      "name": "Transfer",
      "type": "event"
    },
    {
      "inputs": [],
      "name": "COLLATERAL_RATIO",
      "outputs": [
        {
          "internalType": "uint256",
          "name": "",
          "type": "uint256"
        }
      ],
      "stateMutability": "view",
      "type": "function"
    },
    {
      "inputs": [],
      "name": "LIQUIDATION_FEE",
      "outputs": [
        {
          "internalType": "uint256",
          "name": "",
          "type": "uint256"
        }
      ],
      "stateMutability": "view",
      "type": "function"
    },
    {
      "inputs": [],
      "name": "LIQUIDATION_RATIO",
      "outputs": [
        {
          "internalType": "uint256",
          "name": "",
          "type": "uint256"
        }
      ],
      "stateMutability": "view",
      "type": "function"
    },
    {
      "inputs": [
        {
          "internalType": "address",
          "name": "owner",
          "type": "address"
        },
        {
          "internalType": "address",
          "name": "spender",
          "type": "address"
        }
      ],
      "name": "allowance",
      "outputs": [
        {
          "internalType": "uint256",
          "name": "",
          "type": "uint256"
        }
      ],
      "stateMutability": "view",
      "type": "function"
    },
    {
      "inputs": [
        {
          "internalType": "address",
          "name": "spender",
          "type": "address"
        },
        {
          "internalType": "uint256",
          "name": "amount",
          "type": "uint256"
        }
      ],
      "name": "approve",
      "outputs": [
        {
          "internalType": "bool",
          "name": "",
          "type": "bool"
        }
      ],
      "stateMutability": "nonpayable",
      "type": "function"
    },
    {
      "inputs": [
        {
          "internalType": "address",
          "name": "account",
          "type": "address"
        }
      ],
      "name": "balanceOf",
      "outputs": [
        {
          "internalType": "uint256",
          "name": "",
          "type": "uint256"
        }
      ],
      "stateMutability": "view",
      "type": "function"
    },
    {
      "inputs": [
        {
          "internalType": "uint256",
          "name": "stEthAmount",
          "type": "uint256"
        }
      ],
      "name": "borrow",
      "outputs": [],
      "stateMutability": "nonpayable",
      "type": "function"
    },
    {
      "inputs": [
        {
          "internalType": "uint256",
          "name": "stEthAmount",
          "type": "uint256"
        },
        {
          "internalType": "uint256",
          "name": "stEthPriceInUsd",
          "type": "uint256"
        },
        {
          "internalType": "uint256",
          "name": "goldPriceInUsd",
          "type": "uint256"
        }
      ],
      "name": "calculateNuggetsAmount",
      "outputs": [
        {
          "internalType": "uint256",
          "name": "",
          "type": "uint256"
        }
      ],
      "stateMutability": "pure",
      "type": "function"
    },
    {
      "inputs": [
        {
          "internalType": "address",
          "name": "",
          "type": "address"
        }
      ],
      "name": "collateral",
      "outputs": [
        {
          "internalType": "uint256",
          "name": "",
          "type": "uint256"
        }
      ],
      "stateMutability": "view",
      "type": "function"
    },
    {
      "inputs": [],
      "name": "decimals",
      "outputs": [
        {
          "internalType": "uint8",
          "name": "",
          "type": "uint8"
        }
      ],
      "stateMutability": "view",
      "type": "function"
    },
    {
      "inputs": [
        {
          "internalType": "address",
          "name": "spender",
          "type": "address"
        },
        {
          "internalType": "uint256",
          "name": "subtractedValue",
          "type": "uint256"
        }
      ],
      "name": "decreaseAllowance",
      "outputs": [
        {
          "internalType": "bool",
          "name": "",
          "type": "bool"
        }
      ],
      "stateMutability": "nonpayable",
      "type": "function"
    },
    {
      "inputs": [],
      "name": "getGoldPriceInUsd",
      "outputs": [
        {
          "internalType": "uint256",
          "name": "",
          "type": "uint256"
        }
      ],
      "stateMutability": "view",
      "type": "function"
    },
    {
      "inputs": [],
      "name": "getStethPriceInUsd",
      "outputs": [
        {
          "internalType": "uint256",
          "name": "",
          "type": "uint256"
        }
      ],
      "stateMutability": "view",
      "type": "function"
    },
    {
      "inputs": [],
      "name": "goldPriceFeed",
      "outputs": [
        {
          "internalType": "contract AggregatorV3Interface",
          "name": "",
          "type": "address"
        }
      ],
      "stateMutability": "view",
      "type": "function"
    },
    {
      "inputs": [
        {
          "internalType": "address",
          "name": "spender",
          "type": "address"
        },
        {
          "internalType": "uint256",
          "name": "addedValue",
          "type": "uint256"
        }
      ],
      "name": "increaseAllowance",
      "outputs": [
        {
          "internalType": "bool",
          "name": "",
          "type": "bool"
        }
      ],
      "stateMutability": "nonpayable",
      "type": "function"
    },
    {
      "inputs": [
        {
          "internalType": "address",
          "name": "account",
          "type": "address"
        }
      ],
      "name": "liquidate",
      "outputs": [],
      "stateMutability": "nonpayable",
      "type": "function"
    },
    {
      "inputs": [],
      "name": "name",
      "outputs": [
        {
          "internalType": "string",
          "name": "",
          "type": "string"
        }
      ],
      "stateMutability": "view",
      "type": "function"
    },
    {
      "inputs": [],
      "name": "owner",
      "outputs": [
        {
          "internalType": "address",
          "name": "",
          "type": "address"
        }
      ],
      "stateMutability": "view",
      "type": "function"
    },
    {
      "inputs": [],
      "name": "renounceOwnership",
      "outputs": [],
      "stateMutability": "nonpayable",
      "type": "function"
    },
    {
      "inputs": [
        {
          "internalType": "uint256",
          "name": "nuggetsAmount",
          "type": "uint256"
        }
      ],
      "name": "repay",
      "outputs": [],
      "stateMutability": "nonpayable",
      "type": "function"
    },
    {
      "inputs": [],
      "name": "stETH",
      "outputs": [
        {
          "internalType": "contract IERC20",
          "name": "",
          "type": "address"
        }
      ],
      "stateMutability": "view",
      "type": "function"
    },
    {
      "inputs": [],
      "name": "stEthPriceFeed",
      "outputs": [
        {
          "internalType": "contract AggregatorV3Interface",
          "name": "",
          "type": "address"
        }
      ],
      "stateMutability": "view",
      "type": "function"
    },
    {
      "inputs": [],
      "name": "symbol",
      "outputs": [
        {
          "internalType": "string",
          "name": "",
          "type": "string"
        }
      ],
      "stateMutability": "view",
      "type": "function"
    },
    {
      "inputs": [],
      "name": "totalSupply",
      "outputs": [
        {
          "internalType": "uint256",
          "name": "",
          "type": "uint256"
        }
      ],
      "stateMutability": "view",
      "type": "function"
    },
    {
      "inputs": [
        {
          "internalType": "address",
          "name": "to",
          "type": "address"
        },
        {
          "internalType": "uint256",
          "name": "amount",
          "type": "uint256"
        }
      ],
      "name": "transfer",
      "outputs": [
        {
          "internalType": "bool",
          "name": "",
          "type": "bool"
        }
      ],
      "stateMutability": "nonpayable",
      "type": "function"
    },
    {
      "inputs": [
        {
          "internalType": "address",
          "name": "from",
          "type": "address"
        },
        {
          "internalType": "address",
          "name": "to",
          "type": "address"
        },
        {
          "internalType": "uint256",
          "name": "amount",
          "type": "uint256"
        }
      ],
      "name": "transferFrom",
      "outputs": [
        {
          "internalType": "bool",
          "name": "",
          "type": "bool"
        }
      ],
      "stateMutability": "nonpayable",
      "type": "function"
    },
    {
      "inputs": [
        {
          "internalType": "address",
          "name": "newOwner",
          "type": "address"
        }
      ],
      "name": "transferOwnership",
      "outputs": [],
      "stateMutability": "nonpayable",
      "type": "function"
    }
  ],
  "bytecode": "0x60806040523480156200001157600080fd5b5060405162002d9338038062002d93833981810160405281019062000037919062000358565b6040518060400160405280600781526020017f4e756767657473000000000000000000000000000000000000000000000000008152506040518060400160405280600381526020017f4e475400000000000000000000000000000000000000000000000000000000008152508160039080519060200190620000bb92919062000291565b508060049080519060200190620000d492919062000291565b505050620000f7620000eb620001c360201b60201c565b620001cb60201b60201c565b82600660006101000a81548173ffffffffffffffffffffffffffffffffffffffff021916908373ffffffffffffffffffffffffffffffffffffffff16021790555081600760006101000a81548173ffffffffffffffffffffffffffffffffffffffff021916908373ffffffffffffffffffffffffffffffffffffffff16021790555080600860006101000a81548173ffffffffffffffffffffffffffffffffffffffff021916908373ffffffffffffffffffffffffffffffffffffffff16021790555050505062000461565b600033905090565b6000600560009054906101000a900473ffffffffffffffffffffffffffffffffffffffff16905081600560006101000a81548173ffffffffffffffffffffffffffffffffffffffff021916908373ffffffffffffffffffffffffffffffffffffffff1602179055508173ffffffffffffffffffffffffffffffffffffffff168173ffffffffffffffffffffffffffffffffffffffff167f8be0079c531659141344cd1fd0a4f28419497f9722a3daafe3b4186f6b6457e060405160405180910390a35050565b8280546200029f90620003e2565b90600052602060002090601f016020900481019282620002c357600085556200030f565b82601f10620002de57805160ff19168380011785556200030f565b828001600101855582156200030f579182015b828111156200030e578251825591602001919060010190620002f1565b5b5090506200031e919062000322565b5090565b5b808211156200033d57600081600090555060010162000323565b5090565b600081519050620003528162000447565b92915050565b6000806000606084860312156200036e57600080fd5b60006200037e8682870162000341565b9350506020620003918682870162000341565b9250506040620003a48682870162000341565b9150509250925092565b6000620003bb82620003c2565b9050919050565b600073ffffffffffffffffffffffffffffffffffffffff82169050919050565b60006002820490506001821680620003fb57607f821691505b6020821081141562000412576200041162000418565b5b50919050565b7f4e487b7100000000000000000000000000000000000000000000000000000000600052602260045260246000fd5b6200045281620003ae565b81146200045e57600080fd5b50565b61292280620004716000396000f3fe608060405234801561001057600080fd5b50600436106101a95760003560e01c806395d89b41116100f9578063c422f9d011610097578063d51ec56811610071578063d51ec568146104d6578063d9e69a05146104f4578063dd62ed3e14610512578063f2fde38b14610542576101a9565b8063c422f9d01461047e578063c4323fea1461049c578063c5ebeaec146104ba576101a9565b8063a9059cbb116100d3578063a9059cbb146103f4578063b182733014610424578063b915989f14610442578063c1fe3e4814610460576101a9565b806395d89b4114610376578063a457c2d714610394578063a5fdc5de146103c4576101a9565b8063313ce56711610166578063395093511161014057806339509351146102ee57806370a082311461031e578063715018a61461034e5780638da5cb5b14610358576101a9565b8063313ce567146102965780633190480e146102b4578063371fd8e6146102d2576101a9565b806306d4a201146101ae57806306fdde03146101de578063095ea7b3146101fc57806318160ddd1461022c57806323b872dd1461024a5780632f8655681461027a575b600080fd5b6101c860048036038101906101c39190611c49565b61055e565b6040516101d59190612586565b60405180910390f35b6101e6610585565b6040516101f39190612384565b60405180910390f35b61021660048036038101906102119190611bbb565b610617565b6040516102239190612333565b60405180910390f35b61023461063a565b6040516102419190612586565b60405180910390f35b610264600480360381019061025f9190611b6c565b610644565b6040516102719190612333565b60405180910390f35b610294600480360381019061028f9190611b07565b610673565b005b61029e6108a1565b6040516102ab91906125a1565b60405180910390f35b6102bc6108aa565b6040516102c9919061234e565b60405180910390f35b6102ec60048036038101906102e79190611c20565b6108d0565b005b61030860048036038101906103039190611bbb565b610a93565b6040516103159190612333565b60405180910390f35b61033860048036038101906103339190611b07565b610aca565b6040516103459190612586565b60405180910390f35b610356610b12565b005b610360610b26565b60405161036d91906122b8565b60405180910390f35b61037e610b50565b60405161038b9190612384565b60405180910390f35b6103ae60048036038101906103a99190611bbb565b610be2565b6040516103bb9190612333565b60405180910390f35b6103de60048036038101906103d99190611b07565b610c59565b6040516103eb9190612586565b60405180910390f35b61040e60048036038101906104099190611bbb565b610c71565b60405161041b9190612333565b60405180910390f35b61042c610c94565b6040516104399190612586565b60405180910390f35b61044a610c99565b6040516104579190612586565b60405180910390f35b610468610d9c565b6040516104759190612369565b60405180910390f35b610486610dc2565b604051610493919061234e565b60405180910390f35b6104a4610de8565b6040516104b19190612586565b60405180910390f35b6104d460048036038101906104cf9190611c20565b610ded565b005b6104de610f2c565b6040516104eb9190612586565b60405180910390f35b6104fc61102f565b6040516105099190612586565b60405180910390f35b61052c60048036038101906105279190611b30565b611034565b6040516105399190612586565b60405180910390f35b61055c60048036038101906105579190611b07565b6110bb565b005b60008082848661056e919061265f565b610578919061262e565b9050809150509392505050565b606060038054610594906127a9565b80601f01602080910402602001604051908101604052809291908181526020018280546105c0906127a9565b801561060d5780601f106105e25761010080835404028352916020019161060d565b820191906000526020600020905b8154815290600101906020018083116105f057829003601f168201915b5050505050905090565b60008061062261113f565b905061062f818585611147565b600191505092915050565b6000600254905090565b60008061064f61113f565b905061065c858285611312565b61066785858561139e565b60019150509392505050565b600061067d610f2c565b9050600061068a83610aca565b905060c881610699919061265f565b606483600960008773ffffffffffffffffffffffffffffffffffffffff1673ffffffffffffffffffffffffffffffffffffffff168152602001908152602001600020546106e6919061265f565b6106f0919061265f565b10610730576040517f08c379a000000000000000000000000000000000000000000000000000000000815260040161072790612426565b60405180910390fd5b60006064600583610741919061265f565b61074b919061262e565b90506000600960008673ffffffffffffffffffffffffffffffffffffffff1673ffffffffffffffffffffffffffffffffffffffff168152602001908152602001600020549050600660009054906101000a900473ffffffffffffffffffffffffffffffffffffffff1673ffffffffffffffffffffffffffffffffffffffff1663a9059cbb33836040518363ffffffff1660e01b81526004016107ee92919061230a565b602060405180830381600087803b15801561080857600080fd5b505af115801561081c573d6000803e3d6000fd5b505050506040513d601f19601f820116820180604052508101906108409190611bf7565b506000600960008773ffffffffffffffffffffffffffffffffffffffff1673ffffffffffffffffffffffffffffffffffffffff168152602001908152602001600020819055506108908584611616565b61089a33836117e4565b5050505050565b60006012905090565b600760009054906101000a900473ffffffffffffffffffffffffffffffffffffffff1681565b6000600960003373ffffffffffffffffffffffffffffffffffffffff1673ffffffffffffffffffffffffffffffffffffffff1681526020019081526020016000205411610952576040517f08c379a000000000000000000000000000000000000000000000000000000000815260040161094990612486565b60405180910390fd5b600660009054906101000a900473ffffffffffffffffffffffffffffffffffffffff1673ffffffffffffffffffffffffffffffffffffffff1663a9059cbb33600960003373ffffffffffffffffffffffffffffffffffffffff1673ffffffffffffffffffffffffffffffffffffffff168152602001908152602001600020546040518363ffffffff1660e01b81526004016109ee92919061230a565b602060405180830381600087803b158015610a0857600080fd5b505af1158015610a1c573d6000803e3d6000fd5b505050506040513d601f19601f82011682018060405250810190610a409190611bf7565b506000600960003373ffffffffffffffffffffffffffffffffffffffff1673ffffffffffffffffffffffffffffffffffffffff16815260200190815260200160002081905550610a903382611616565b50565b600080610a9e61113f565b9050610abf818585610ab08589611034565b610aba91906125d8565b611147565b600191505092915050565b60008060008373ffffffffffffffffffffffffffffffffffffffff1673ffffffffffffffffffffffffffffffffffffffff168152602001908152602001600020549050919050565b610b1a61193b565b610b2460006119b9565b565b6000600560009054906101000a900473ffffffffffffffffffffffffffffffffffffffff16905090565b606060048054610b5f906127a9565b80601f0160208091040260200160405190810160405280929190818152602001828054610b8b906127a9565b8015610bd85780601f10610bad57610100808354040283529160200191610bd8565b820191906000526020600020905b815481529060010190602001808311610bbb57829003601f168201915b5050505050905090565b600080610bed61113f565b90506000610bfb8286611034565b905083811015610c40576040517f08c379a0000000000000000000000000000000000000000000000000000000008152600401610c3790612546565b60405180910390fd5b610c4d8286868403611147565b60019250505092915050565b60096020528060005260406000206000915090505481565b600080610c7c61113f565b9050610c8981858561139e565b600191505092915050565b600581565b600080600860009054906101000a900473ffffffffffffffffffffffffffffffffffffffff1673ffffffffffffffffffffffffffffffffffffffff1663feaf968c6040518163ffffffff1660e01b815260040160a06040518083038186803b158015610d0457600080fd5b505afa158015610d18573d6000803e3d6000fd5b505050506040513d601f19601f82011682018060405250810190610d3c9190611c98565b50505091505060008113610d85576040517f08c379a0000000000000000000000000000000000000000000000000000000008152600401610d7c90612526565b60405180910390fd5b6402540be40081610d96919061265f565b91505090565b600660009054906101000a900473ffffffffffffffffffffffffffffffffffffffff1681565b600860009054906101000a900473ffffffffffffffffffffffffffffffffffffffff1681565b609681565b6000610df7610f2c565b90506000610e03610c99565b90506000610e1284848461055e565b9050600660009054906101000a900473ffffffffffffffffffffffffffffffffffffffff1673ffffffffffffffffffffffffffffffffffffffff166323b872dd3330876040518463ffffffff1660e01b8152600401610e73939291906122d3565b602060405180830381600087803b158015610e8d57600080fd5b505af1158015610ea1573d6000803e3d6000fd5b505050506040513d601f19601f82011682018060405250810190610ec59190611bf7565b5083600960003373ffffffffffffffffffffffffffffffffffffffff1673ffffffffffffffffffffffffffffffffffffffff1681526020019081526020016000206000828254610f1591906125d8565b92505081905550610f2633826117e4565b50505050565b600080600760009054906101000a900473ffffffffffffffffffffffffffffffffffffffff1673ffffffffffffffffffffffffffffffffffffffff1663feaf968c6040518163ffffffff1660e01b815260040160a06040518083038186803b158015610f9757600080fd5b505afa158015610fab573d6000803e3d6000fd5b505050506040513d601f19601f82011682018060405250810190610fcf9190611c98565b50505091505060008113611018576040517f08c379a000000000000000000000000000000000000000000000000000000000815260040161100f90612526565b60405180910390fd5b6402540be40081611029919061265f565b91505090565b60c881565b6000600160008473ffffffffffffffffffffffffffffffffffffffff1673ffffffffffffffffffffffffffffffffffffffff16815260200190815260200160002060008373ffffffffffffffffffffffffffffffffffffffff1673ffffffffffffffffffffffffffffffffffffffff16815260200190815260200160002054905092915050565b6110c361193b565b600073ffffffffffffffffffffffffffffffffffffffff168173ffffffffffffffffffffffffffffffffffffffff161415611133576040517f08c379a000000000000000000000000000000000000000000000000000000000815260040161112a906123e6565b60405180910390fd5b61113c816119b9565b50565b600033905090565b600073ffffffffffffffffffffffffffffffffffffffff168373ffffffffffffffffffffffffffffffffffffffff1614156111b7576040517f08c379a00000000000000000000000000000000000000000000000000000000081526004016111ae90612506565b60405180910390fd5b600073ffffffffffffffffffffffffffffffffffffffff168273ffffffffffffffffffffffffffffffffffffffff161415611227576040517f08c379a000000000000000000000000000000000000000000000000000000000815260040161121e90612406565b60405180910390fd5b80600160008573ffffffffffffffffffffffffffffffffffffffff1673ffffffffffffffffffffffffffffffffffffffff16815260200190815260200160002060008473ffffffffffffffffffffffffffffffffffffffff1673ffffffffffffffffffffffffffffffffffffffff168152602001908152602001600020819055508173ffffffffffffffffffffffffffffffffffffffff168373ffffffffffffffffffffffffffffffffffffffff167f8c5be1e5ebec7d5bd14f71427d1e84f3dd0314c0f7b2291e5b200ac8c7c3b925836040516113059190612586565b60405180910390a3505050565b600061131e8484611034565b90507fffffffffffffffffffffffffffffffffffffffffffffffffffffffffffffffff8114611398578181101561138a576040517f08c379a000000000000000000000000000000000000000000000000000000000815260040161138190612446565b60405180910390fd5b6113978484848403611147565b5b50505050565b600073ffffffffffffffffffffffffffffffffffffffff168373ffffffffffffffffffffffffffffffffffffffff16141561140e576040517f08c379a0000000000000000000000000000000000000000000000000000000008152600401611405906124e6565b60405180910390fd5b600073ffffffffffffffffffffffffffffffffffffffff168273ffffffffffffffffffffffffffffffffffffffff16141561147e576040517f08c379a0000000000000000000000000000000000000000000000000000000008152600401611475906123a6565b60405180910390fd5b611489838383611a7f565b60008060008573ffffffffffffffffffffffffffffffffffffffff1673ffffffffffffffffffffffffffffffffffffffff1681526020019081526020016000205490508181101561150f576040517f08c379a000000000000000000000000000000000000000000000000000000000815260040161150690612466565b60405180910390fd5b8181036000808673ffffffffffffffffffffffffffffffffffffffff1673ffffffffffffffffffffffffffffffffffffffff16815260200190815260200160002081905550816000808573ffffffffffffffffffffffffffffffffffffffff1673ffffffffffffffffffffffffffffffffffffffff168152602001908152602001600020600082825401925050819055508273ffffffffffffffffffffffffffffffffffffffff168473ffffffffffffffffffffffffffffffffffffffff167fddf252ad1be2c89b69c2b068fc378daa952ba7f163c4a11628f55a4df523b3ef846040516115fd9190612586565b60405180910390a3611610848484611a84565b50505050565b600073ffffffffffffffffffffffffffffffffffffffff168273ffffffffffffffffffffffffffffffffffffffff161415611686576040517f08c379a000000000000000000000000000000000000000000000000000000000815260040161167d906124c6565b60405180910390fd5b61169282600083611a7f565b60008060008473ffffffffffffffffffffffffffffffffffffffff1673ffffffffffffffffffffffffffffffffffffffff16815260200190815260200160002054905081811015611718576040517f08c379a000000000000000000000000000000000000000000000000000000000815260040161170f906123c6565b60405180910390fd5b8181036000808573ffffffffffffffffffffffffffffffffffffffff1673ffffffffffffffffffffffffffffffffffffffff1681526020019081526020016000208190555081600260008282540392505081905550600073ffffffffffffffffffffffffffffffffffffffff168373ffffffffffffffffffffffffffffffffffffffff167fddf252ad1be2c89b69c2b068fc378daa952ba7f163c4a11628f55a4df523b3ef846040516117cb9190612586565b60405180910390a36117df83600084611a84565b505050565b600073ffffffffffffffffffffffffffffffffffffffff168273ffffffffffffffffffffffffffffffffffffffff161415611854576040517f08c379a000000000000000000000000000000000000000000000000000000000815260040161184b90612566565b60405180910390fd5b61186060008383611a7f565b806002600082825461187291906125d8565b92505081905550806000808473ffffffffffffffffffffffffffffffffffffffff1673ffffffffffffffffffffffffffffffffffffffff168152602001908152602001600020600082825401925050819055508173ffffffffffffffffffffffffffffffffffffffff16600073ffffffffffffffffffffffffffffffffffffffff167fddf252ad1be2c89b69c2b068fc378daa952ba7f163c4a11628f55a4df523b3ef836040516119239190612586565b60405180910390a361193760008383611a84565b5050565b61194361113f565b73ffffffffffffffffffffffffffffffffffffffff16611961610b26565b73ffffffffffffffffffffffffffffffffffffffff16146119b7576040517f08c379a00000000000000000000000000000000000000000000000000000000081526004016119ae906124a6565b60405180910390fd5b565b6000600560009054906101000a900473ffffffffffffffffffffffffffffffffffffffff16905081600560006101000a81548173ffffffffffffffffffffffffffffffffffffffff021916908373ffffffffffffffffffffffffffffffffffffffff1602179055508173ffffffffffffffffffffffffffffffffffffffff168173ffffffffffffffffffffffffffffffffffffffff167f8be0079c531659141344cd1fd0a4f28419497f9722a3daafe3b4186f6b6457e060405160405180910390a35050565b505050565b505050565b600081359050611a9881612879565b92915050565b600081519050611aad81612890565b92915050565b600081519050611ac2816128a7565b92915050565b600081359050611ad7816128be565b92915050565b600081519050611aec816128be565b92915050565b600081519050611b01816128d5565b92915050565b600060208284031215611b1957600080fd5b6000611b2784828501611a89565b91505092915050565b60008060408385031215611b4357600080fd5b6000611b5185828601611a89565b9250506020611b6285828601611a89565b9150509250929050565b600080600060608486031215611b8157600080fd5b6000611b8f86828701611a89565b9350506020611ba086828701611a89565b9250506040611bb186828701611ac8565b9150509250925092565b60008060408385031215611bce57600080fd5b6000611bdc85828601611a89565b9250506020611bed85828601611ac8565b9150509250929050565b600060208284031215611c0957600080fd5b6000611c1784828501611a9e565b91505092915050565b600060208284031215611c3257600080fd5b6000611c4084828501611ac8565b91505092915050565b600080600060608486031215611c5e57600080fd5b6000611c6c86828701611ac8565b9350506020611c7d86828701611ac8565b9250506040611c8e86828701611ac8565b9150509250925092565b600080600080600060a08688031215611cb057600080fd5b6000611cbe88828901611af2565b9550506020611ccf88828901611ab3565b9450506040611ce088828901611add565b9350506060611cf188828901611add565b9250506080611d0288828901611af2565b9150509295509295909350565b611d18816126b9565b82525050565b611d27816126cb565b82525050565b611d368161272e565b82525050565b611d4581612752565b82525050565b6000611d56826125bc565b611d6081856125c7565b9350611d70818560208601612776565b611d7981612868565b840191505092915050565b6000611d916023836125c7565b91507f45524332303a207472616e7366657220746f20746865207a65726f206164647260008301527f65737300000000000000000000000000000000000000000000000000000000006020830152604082019050919050565b6000611df76022836125c7565b91507f45524332303a206275726e20616d6f756e7420657863656564732062616c616e60008301527f63650000000000000000000000000000000000000000000000000000000000006020830152604082019050919050565b6000611e5d6026836125c7565b91507f4f776e61626c653a206e6577206f776e657220697320746865207a65726f206160008301527f64647265737300000000000000000000000000000000000000000000000000006020830152604082019050919050565b6000611ec36022836125c7565b91507f45524332303a20617070726f766520746f20746865207a65726f20616464726560008301527f73730000000000000000000000000000000000000000000000000000000000006020830152604082019050919050565b6000611f296010836125c7565b91507f43616e6e6f74206c6971756964617465000000000000000000000000000000006000830152602082019050919050565b6000611f69601d836125c7565b91507f45524332303a20696e73756666696369656e7420616c6c6f77616e63650000006000830152602082019050919050565b6000611fa96026836125c7565b91507f45524332303a207472616e7366657220616d6f756e742065786365656473206260008301527f616c616e636500000000000000000000000000000000000000000000000000006020830152604082019050919050565b600061200f6016836125c7565b91507f4e6f20636f6c6c61746572616c20746f207265706179000000000000000000006000830152602082019050919050565b600061204f6020836125c7565b91507f4f776e61626c653a2063616c6c6572206973206e6f7420746865206f776e65726000830152602082019050919050565b600061208f6021836125c7565b91507f45524332303a206275726e2066726f6d20746865207a65726f2061646472657360008301527f73000000000000000000000000000000000000000000000000000000000000006020830152604082019050919050565b60006120f56025836125c7565b91507f45524332303a207472616e736665722066726f6d20746865207a65726f20616460008301527f64726573730000000000000000000000000000000000000000000000000000006020830152604082019050919050565b600061215b6024836125c7565b91507f45524332303a20617070726f76652066726f6d20746865207a65726f2061646460008301527f72657373000000000000000000000000000000000000000000000000000000006020830152604082019050919050565b60006121c16012836125c7565b91507f496e76616c6964207072696365206665656400000000000000000000000000006000830152602082019050919050565b60006122016025836125c7565b91507f45524332303a2064656372656173656420616c6c6f77616e63652062656c6f7760008301527f207a65726f0000000000000000000000000000000000000000000000000000006020830152604082019050919050565b6000612267601f836125c7565b91507f45524332303a206d696e7420746f20746865207a65726f2061646472657373006000830152602082019050919050565b6122a381612701565b82525050565b6122b28161270b565b82525050565b60006020820190506122cd6000830184611d0f565b92915050565b60006060820190506122e86000830186611d0f565b6122f56020830185611d0f565b612302604083018461229a565b949350505050565b600060408201905061231f6000830185611d0f565b61232c602083018461229a565b9392505050565b60006020820190506123486000830184611d1e565b92915050565b60006020820190506123636000830184611d2d565b92915050565b600060208201905061237e6000830184611d3c565b92915050565b6000602082019050818103600083015261239e8184611d4b565b905092915050565b600060208201905081810360008301526123bf81611d84565b9050919050565b600060208201905081810360008301526123df81611dea565b9050919050565b600060208201905081810360008301526123ff81611e50565b9050919050565b6000602082019050818103600083015261241f81611eb6565b9050919050565b6000602082019050818103600083015261243f81611f1c565b9050919050565b6000602082019050818103600083015261245f81611f5c565b9050919050565b6000602082019050818103600083015261247f81611f9c565b9050919050565b6000602082019050818103600083015261249f81612002565b9050919050565b600060208201905081810360008301526124bf81612042565b9050919050565b600060208201905081810360008301526124df81612082565b9050919050565b600060208201905081810360008301526124ff816120e8565b9050919050565b6000602082019050818103600083015261251f8161214e565b9050919050565b6000602082019050818103600083015261253f816121b4565b9050919050565b6000602082019050818103600083015261255f816121f4565b9050919050565b6000602082019050818103600083015261257f8161225a565b9050919050565b600060208201905061259b600083018461229a565b92915050565b60006020820190506125b660008301846122a9565b92915050565b600081519050919050565b600082825260208201905092915050565b60006125e382612701565b91506125ee83612701565b9250827fffffffffffffffffffffffffffffffffffffffffffffffffffffffffffffffff03821115612623576126226127db565b5b828201905092915050565b600061263982612701565b915061264483612701565b9250826126545761265361280a565b5b828204905092915050565b600061266a82612701565b915061267583612701565b9250817fffffffffffffffffffffffffffffffffffffffffffffffffffffffffffffffff04831182151516156126ae576126ad6127db565b5b828202905092915050565b60006126c4826126e1565b9050919050565b60008115159050919050565b6000819050919050565b600073ffffffffffffffffffffffffffffffffffffffff82169050919050565b6000819050919050565b600060ff82169050919050565b600069ffffffffffffffffffff82169050919050565b600061273982612740565b9050919050565b600061274b826126e1565b9050919050565b600061275d82612764565b9050919050565b600061276f826126e1565b9050919050565b60005b83811015612794578082015181840152602081019050612779565b838111156127a3576000848401525b50505050565b600060028204905060018216806127c157607f821691505b602082108114156127d5576127d4612839565b5b50919050565b7f4e487b7100000000000000000000000000000000000000000000000000000000600052601160045260246000fd5b7f4e487b7100000000000000000000000000000000000000000000000000000000600052601260045260246000fd5b7f4e487b7100000000000000000000000000000000000000000000000000000000600052602260045260246000fd5b6000601f19601f8301169050919050565b612882816126b9565b811461288d57600080fd5b50565b612899816126cb565b81146128a457600080fd5b50565b6128b0816126d7565b81146128bb57600080fd5b50565b6128c781612701565b81146128d257600080fd5b50565b6128de81612718565b81146128e957600080fd5b5056fea26469706673582212203fd612344981fdd7e77a37bf24099f04a16f5714aa54d16f9f7ec55ceb95230564736f6c63430008000033",
  "linkReferences": {},
  "deployedLinkReferences": {}
}