{
  "_format": "hh-sol-artifact-1",
  "contractName": "Nuggets",
  "sourceName": "contracts/Nuggets.sol",
  "abi": [
    {
      "inputs": [
        {
          "internalType": "contract IEthOracle",
          "name": "_ethOracle",
          "type": "address"
        }
      ],
      "stateMutability": "nonpayable",
      "type": "constructor"
    },
    {
      "anonymous": false,
      "inputs": [
        {
          "indexed": true,
          "internalType": "address",
          "name": "owner",
          "type": "address"
        },
        {
          "indexed": true,
          "internalType": "address",
          "name": "spender",
          "type": "address"
        },
        {
          "indexed": false,
          "internalType": "uint256",
          "name": "value",
          "type": "uint256"
        }
      ],
      "name": "Approval",
      "type": "event"
    },
    {
      "anonymous": false,
      "inputs": [
        {
          "indexed": false,
          "internalType": "uint256",
          "name": "priceInUsd",
          "type": "uint256"
        }
      ],
      "name": "EthPriceUpdated",
      "type": "event"
    },
    {
      "anonymous": false,
      "inputs": [
        {
          "indexed": true,
          "internalType": "address",
          "name": "previousOwner",
          "type": "address"
        },
        {
          "indexed": true,
          "internalType": "address",
          "name": "newOwner",
          "type": "address"
        }
      ],
      "name": "OwnershipTransferred",
      "type": "event"
    },
    {
      "anonymous": false,
      "inputs": [
        {
          "indexed": true,
          "internalType": "address",
          "name": "from",
          "type": "address"
        },
        {
          "indexed": true,
          "internalType": "address",
          "name": "to",
          "type": "address"
        },
        {
          "indexed": false,
          "internalType": "uint256",
          "name": "value",
          "type": "uint256"
        }
      ],
      "name": "Transfer",
      "type": "event"
    },
    {
      "inputs": [],
      "name": "COLLATERAL_RATIO",
      "outputs": [
        {
          "internalType": "uint256",
          "name": "",
          "type": "uint256"
        }
      ],
      "stateMutability": "view",
      "type": "function"
    },
    {
      "inputs": [],
      "name": "LIQUIDATION_FEE",
      "outputs": [
        {
          "internalType": "uint256",
          "name": "",
          "type": "uint256"
        }
      ],
      "stateMutability": "view",
      "type": "function"
    },
    {
      "inputs": [],
      "name": "LIQUIDATION_RATIO",
      "outputs": [
        {
          "internalType": "uint256",
          "name": "",
          "type": "uint256"
        }
      ],
      "stateMutability": "view",
      "type": "function"
    },
    {
      "inputs": [],
      "name": "WETH",
      "outputs": [
        {
          "internalType": "address",
          "name": "",
          "type": "address"
        }
      ],
      "stateMutability": "view",
      "type": "function"
    },
    {
      "inputs": [
        {
          "internalType": "address",
          "name": "owner",
          "type": "address"
        },
        {
          "internalType": "address",
          "name": "spender",
          "type": "address"
        }
      ],
      "name": "allowance",
      "outputs": [
        {
          "internalType": "uint256",
          "name": "",
          "type": "uint256"
        }
      ],
      "stateMutability": "view",
      "type": "function"
    },
    {
      "inputs": [
        {
          "internalType": "address",
          "name": "spender",
          "type": "address"
        },
        {
          "internalType": "uint256",
          "name": "amount",
          "type": "uint256"
        }
      ],
      "name": "approve",
      "outputs": [
        {
          "internalType": "bool",
          "name": "",
          "type": "bool"
        }
      ],
      "stateMutability": "nonpayable",
      "type": "function"
    },
    {
      "inputs": [
        {
          "internalType": "address",
          "name": "account",
          "type": "address"
        }
      ],
      "name": "balanceOf",
      "outputs": [
        {
          "internalType": "uint256",
          "name": "",
          "type": "uint256"
        }
      ],
      "stateMutability": "view",
      "type": "function"
    },
    {
      "inputs": [
        {
          "internalType": "uint256",
          "name": "nuggetsAmount",
          "type": "uint256"
        }
      ],
      "name": "burn",
      "outputs": [],
      "stateMutability": "nonpayable",
      "type": "function"
    },
    {
      "inputs": [
        {
          "internalType": "uint256",
          "name": "stEthAmount",
          "type": "uint256"
        },
        {
          "internalType": "uint256",
          "name": "ethPriceInUsd",
          "type": "uint256"
        }
      ],
      "name": "calculateNuggetsAmount",
      "outputs": [
        {
          "internalType": "uint256",
          "name": "",
          "type": "uint256"
        }
      ],
      "stateMutability": "pure",
      "type": "function"
    },
    {
      "inputs": [
        {
          "internalType": "uint256",
          "name": "nuggetsAmount",
          "type": "uint256"
        },
        {
          "internalType": "uint256",
          "name": "ethPriceInUsd",
          "type": "uint256"
        }
      ],
      "name": "calculateStEthAmount",
      "outputs": [
        {
          "internalType": "uint256",
          "name": "",
          "type": "uint256"
        }
      ],
      "stateMutability": "pure",
      "type": "function"
    },
    {
      "inputs": [
        {
          "internalType": "address",
          "name": "",
          "type": "address"
        }
      ],
      "name": "collateral",
      "outputs": [
        {
          "internalType": "uint256",
          "name": "",
          "type": "uint256"
        }
      ],
      "stateMutability": "view",
      "type": "function"
    },
    {
      "inputs": [],
      "name": "decimals",
      "outputs": [
        {
          "internalType": "uint8",
          "name": "",
          "type": "uint8"
        }
      ],
      "stateMutability": "view",
      "type": "function"
    },
    {
      "inputs": [
        {
          "internalType": "address",
          "name": "spender",
          "type": "address"
        },
        {
          "internalType": "uint256",
          "name": "subtractedValue",
          "type": "uint256"
        }
      ],
      "name": "decreaseAllowance",
      "outputs": [
        {
          "internalType": "bool",
          "name": "",
          "type": "bool"
        }
      ],
      "stateMutability": "nonpayable",
      "type": "function"
    },
    {
      "inputs": [],
      "name": "ethOracle",
      "outputs": [
        {
          "internalType": "contract IEthOracle",
          "name": "",
          "type": "address"
        }
      ],
      "stateMutability": "view",
      "type": "function"
    },
    {
      "inputs": [],
      "name": "getEthPriceInUsd",
      "outputs": [
        {
          "internalType": "uint256",
          "name": "",
          "type": "uint256"
        }
      ],
      "stateMutability": "nonpayable",
      "type": "function"
    },
    {
      "inputs": [
        {
          "internalType": "address",
          "name": "spender",
          "type": "address"
        },
        {
          "internalType": "uint256",
          "name": "addedValue",
          "type": "uint256"
        }
      ],
      "name": "increaseAllowance",
      "outputs": [
        {
          "internalType": "bool",
          "name": "",
          "type": "bool"
        }
      ],
      "stateMutability": "nonpayable",
      "type": "function"
    },
    {
      "inputs": [
        {
          "internalType": "address",
          "name": "account",
          "type": "address"
        }
      ],
      "name": "liquidate",
      "outputs": [],
      "stateMutability": "nonpayable",
      "type": "function"
    },
    {
      "inputs": [
        {
          "internalType": "uint256",
          "name": "stEthAmount",
          "type": "uint256"
        }
      ],
      "name": "mint",
      "outputs": [],
      "stateMutability": "nonpayable",
      "type": "function"
    },
    {
      "inputs": [],
      "name": "name",
      "outputs": [
        {
          "internalType": "string",
          "name": "",
          "type": "string"
        }
      ],
      "stateMutability": "view",
      "type": "function"
    },
    {
      "inputs": [],
      "name": "owner",
      "outputs": [
        {
          "internalType": "address",
          "name": "",
          "type": "address"
        }
      ],
      "stateMutability": "view",
      "type": "function"
    },
    {
      "inputs": [],
      "name": "renounceOwnership",
      "outputs": [],
      "stateMutability": "nonpayable",
      "type": "function"
    },
    {
      "inputs": [],
      "name": "stETH",
      "outputs": [
        {
          "internalType": "contract IERC20",
          "name": "",
          "type": "address"
        }
      ],
      "stateMutability": "view",
      "type": "function"
    },
    {
      "inputs": [],
      "name": "symbol",
      "outputs": [
        {
          "internalType": "string",
          "name": "",
          "type": "string"
        }
      ],
      "stateMutability": "view",
      "type": "function"
    },
    {
      "inputs": [],
      "name": "totalSupply",
      "outputs": [
        {
          "internalType": "uint256",
          "name": "",
          "type": "uint256"
        }
      ],
      "stateMutability": "view",
      "type": "function"
    },
    {
      "inputs": [
        {
          "internalType": "address",
          "name": "to",
          "type": "address"
        },
        {
          "internalType": "uint256",
          "name": "amount",
          "type": "uint256"
        }
      ],
      "name": "transfer",
      "outputs": [
        {
          "internalType": "bool",
          "name": "",
          "type": "bool"
        }
      ],
      "stateMutability": "nonpayable",
      "type": "function"
    },
    {
      "inputs": [
        {
          "internalType": "address",
          "name": "from",
          "type": "address"
        },
        {
          "internalType": "address",
          "name": "to",
          "type": "address"
        },
        {
          "internalType": "uint256",
          "name": "amount",
          "type": "uint256"
        }
      ],
      "name": "transferFrom",
      "outputs": [
        {
          "internalType": "bool",
          "name": "",
          "type": "bool"
        }
      ],
      "stateMutability": "nonpayable",
      "type": "function"
    },
    {
      "inputs": [
        {
          "internalType": "address",
          "name": "newOwner",
          "type": "address"
        }
      ],
      "name": "transferOwnership",
      "outputs": [],
      "stateMutability": "nonpayable",
      "type": "function"
    }
  ],
  "bytecode": "0x608060405273ae7ab96520de3a18e5e111b5eaab095312d7fe84600660006101000a81548173ffffffffffffffffffffffffffffffffffffffff021916908373ffffffffffffffffffffffffffffffffffffffff16021790555073c02aaa39b223fe8d0a0e5c4f27ead9083c756cc2600760006101000a81548173ffffffffffffffffffffffffffffffffffffffff021916908373ffffffffffffffffffffffffffffffffffffffff160217905550348015620000bb57600080fd5b5060405162002c9338038062002c938339818101604052810190620000e191906200037e565b6040518060400160405280600781526020017f4e756767657473000000000000000000000000000000000000000000000000008152506040518060400160405280600381526020017f4e47540000000000000000000000000000000000000000000000000000000000815250816003908051906020019062000165929190620002b7565b5080600490805190602001906200017e929190620002b7565b505050620001a162000195620001e960201b60201c565b620001f160201b60201c565b80600860006101000a81548173ffffffffffffffffffffffffffffffffffffffff021916908373ffffffffffffffffffffffffffffffffffffffff1602179055505062000471565b600033905090565b6000600560009054906101000a900473ffffffffffffffffffffffffffffffffffffffff16905081600560006101000a81548173ffffffffffffffffffffffffffffffffffffffff021916908373ffffffffffffffffffffffffffffffffffffffff1602179055508173ffffffffffffffffffffffffffffffffffffffff168173ffffffffffffffffffffffffffffffffffffffff167f8be0079c531659141344cd1fd0a4f28419497f9722a3daafe3b4186f6b6457e060405160405180910390a35050565b828054620002c590620003f2565b90600052602060002090601f016020900481019282620002e9576000855562000335565b82601f106200030457805160ff191683800117855562000335565b8280016001018555821562000335579182015b828111156200033457825182559160200191906001019062000317565b5b50905062000344919062000348565b5090565b5b808211156200036357600081600090555060010162000349565b5090565b600081519050620003788162000457565b92915050565b6000602082840312156200039157600080fd5b6000620003a18482850162000367565b91505092915050565b6000620003b782620003d2565b9050919050565b6000620003cb82620003aa565b9050919050565b600073ffffffffffffffffffffffffffffffffffffffff82169050919050565b600060028204905060018216806200040b57607f821691505b6020821081141562000422576200042162000428565b5b50919050565b7f4e487b7100000000000000000000000000000000000000000000000000000000600052602260045260246000fd5b6200046281620003be565b81146200046e57600080fd5b50565b61281280620004816000396000f3fe608060405234801561001057600080fd5b50600436106101a95760003560e01c806395d89b41116100f9578063b182733011610097578063d67b98a911610071578063d67b98a9146104e8578063d9e69a0514610506578063dd62ed3e14610524578063f2fde38b14610554576101a9565b8063b18273301461048e578063c1fe3e48146104ac578063c4323fea146104ca576101a9565b8063a457c2d7116100d3578063a457c2d7146103e0578063a5fdc5de14610410578063a9059cbb14610440578063ad5c464814610470576101a9565b806395d89b41146103885780639c8762e1146103a6578063a0712d68146103c4576101a9565b8063313ce5671161016657806370a082311161014057806370a0823114610300578063715018a6146103305780637b4322271461033a5780638da5cb5b1461036a576101a9565b8063313ce5671461029657806339509351146102b457806342966c68146102e4576101a9565b8063024f975e146101ae57806306fdde03146101de578063095ea7b3146101fc57806318160ddd1461022c57806323b872dd1461024a5780632f8655681461027a575b600080fd5b6101c860048036038101906101c39190611bf3565b610570565b6040516101d5919061247e565b60405180910390f35b6101e6610592565b6040516101f3919061229c565b60405180910390f35b61021660048036038101906102119190611b3c565b610624565b604051610223919061224b565b60405180910390f35b610234610647565b604051610241919061247e565b60405180910390f35b610264600480360381019061025f9190611aed565b610651565b604051610271919061224b565b60405180910390f35b610294600480360381019061028f9190611a88565b610680565b005b61029e6108b0565b6040516102ab9190612499565b60405180910390f35b6102ce60048036038101906102c99190611b3c565b6108b9565b6040516102db919061224b565b60405180910390f35b6102fe60048036038101906102f99190611ba1565b6108f0565b005b61031a60048036038101906103159190611a88565b610aa1565b604051610327919061247e565b60405180910390f35b610338610ae9565b005b610354600480360381019061034f9190611bf3565b610afd565b604051610361919061247e565b60405180910390f35b610372610b1f565b60405161037f91906121a7565b60405180910390f35b610390610b49565b60405161039d919061229c565b60405180910390f35b6103ae610bdb565b6040516103bb9190612281565b60405180910390f35b6103de60048036038101906103d99190611ba1565b610c01565b005b6103fa60048036038101906103f59190611b3c565b610d32565b604051610407919061224b565b60405180910390f35b61042a60048036038101906104259190611a88565b610da9565b604051610437919061247e565b60405180910390f35b61045a60048036038101906104559190611b3c565b610dc1565b604051610467919061224b565b60405180910390f35b610478610de4565b60405161048591906121a7565b60405180910390f35b610496610e0a565b6040516104a3919061247e565b60405180910390f35b6104b4610e0f565b6040516104c19190612266565b60405180910390f35b6104d2610e35565b6040516104df919061247e565b60405180910390f35b6104f0610e3a565b6040516104fd919061247e565b60405180910390f35b61050e610fda565b60405161051b919061247e565b60405180910390f35b61053e60048036038101906105399190611ab1565b610fdf565b60405161054b919061247e565b60405180910390f35b61056e60048036038101906105699190611a88565b611066565b005b6000600282846105809190612557565b61058a9190612526565b905092915050565b6060600380546105a1906126c7565b80601f01602080910402602001604051908101604052809291908181526020018280546105cd906126c7565b801561061a5780601f106105ef5761010080835404028352916020019161061a565b820191906000526020600020905b8154815290600101906020018083116105fd57829003601f168201915b5050505050905090565b60008061062f6110ea565b905061063c8185856110f2565b600191505092915050565b6000600254905090565b60008061065c6110ea565b90506106698582856112bd565b610674858585611349565b60019150509392505050565b600061068a610e3a565b9050600061069783610aa1565b905060c86106a484610aa1565b6106ae9190612557565b606483600960008773ffffffffffffffffffffffffffffffffffffffff1673ffffffffffffffffffffffffffffffffffffffff168152602001908152602001600020546106fb9190612557565b6107059190612557565b10610745576040517f08c379a000000000000000000000000000000000000000000000000000000000815260040161073c9061233e565b60405180910390fd5b600060646005836107569190612557565b6107609190612526565b9050600660009054906101000a900473ffffffffffffffffffffffffffffffffffffffff1673ffffffffffffffffffffffffffffffffffffffff1663a9059cbb33600960008873ffffffffffffffffffffffffffffffffffffffff1673ffffffffffffffffffffffffffffffffffffffff168152602001908152602001600020546040518363ffffffff1660e01b81526004016107fe929190612222565b602060405180830381600087803b15801561081857600080fd5b505af115801561082c573d6000803e3d6000fd5b505050506040513d601f19601f820116820180604052508101906108509190611b78565b506000600960008673ffffffffffffffffffffffffffffffffffffffff1673ffffffffffffffffffffffffffffffffffffffff168152602001908152602001600020819055506108a084836115c1565b6108aa338261178f565b50505050565b60006012905090565b6000806108c46110ea565b90506108e58185856108d68589610fdf565b6108e091906124d0565b6110f2565b600191505092915050565b60006108fa610e3a565b905060006109088383610afd565b905080600960003373ffffffffffffffffffffffffffffffffffffffff1673ffffffffffffffffffffffffffffffffffffffff16815260200190815260200160002054101561098c576040517f08c379a00000000000000000000000000000000000000000000000000000000081526004016109839061241e565b60405180910390fd5b600660009054906101000a900473ffffffffffffffffffffffffffffffffffffffff1673ffffffffffffffffffffffffffffffffffffffff1663a9059cbb33836040518363ffffffff1660e01b81526004016109e9929190612222565b602060405180830381600087803b158015610a0357600080fd5b505af1158015610a17573d6000803e3d6000fd5b505050506040513d601f19601f82011682018060405250810190610a3b9190611b78565b5080600960003373ffffffffffffffffffffffffffffffffffffffff1673ffffffffffffffffffffffffffffffffffffffff1681526020019081526020016000206000828254610a8b91906125b1565b92505081905550610a9c33846115c1565b505050565b60008060008373ffffffffffffffffffffffffffffffffffffffff1673ffffffffffffffffffffffffffffffffffffffff168152602001908152602001600020549050919050565b610af16118e6565b610afb6000611964565b565b600081600284610b0d9190612557565b610b179190612526565b905092915050565b6000600560009054906101000a900473ffffffffffffffffffffffffffffffffffffffff16905090565b606060048054610b58906126c7565b80601f0160208091040260200160405190810160405280929190818152602001828054610b84906126c7565b8015610bd15780601f10610ba657610100808354040283529160200191610bd1565b820191906000526020600020905b815481529060010190602001808311610bb457829003601f168201915b5050505050905090565b600860009054906101000a900473ffffffffffffffffffffffffffffffffffffffff1681565b6000610c0b610e3a565b90506000610c198383610570565b9050600660009054906101000a900473ffffffffffffffffffffffffffffffffffffffff1673ffffffffffffffffffffffffffffffffffffffff166323b872dd3330866040518463ffffffff1660e01b8152600401610c7a939291906121c2565b602060405180830381600087803b158015610c9457600080fd5b505af1158015610ca8573d6000803e3d6000fd5b505050506040513d601f19601f82011682018060405250810190610ccc9190611b78565b5082600960003373ffffffffffffffffffffffffffffffffffffffff1673ffffffffffffffffffffffffffffffffffffffff1681526020019081526020016000206000828254610d1c91906124d0565b92505081905550610d2d338261178f565b505050565b600080610d3d6110ea565b90506000610d4b8286610fdf565b905083811015610d90576040517f08c379a0000000000000000000000000000000000000000000000000000000008152600401610d879061243e565b60405180910390fd5b610d9d82868684036110f2565b60019250505092915050565b60096020528060005260406000206000915090505481565b600080610dcc6110ea565b9050610dd9818585611349565b600191505092915050565b600760009054906101000a900473ffffffffffffffffffffffffffffffffffffffff1681565b600581565b600660009054906101000a900473ffffffffffffffffffffffffffffffffffffffff1681565b609681565b6000600860009054906101000a900473ffffffffffffffffffffffffffffffffffffffff1673ffffffffffffffffffffffffffffffffffffffff1663a2e620456040518163ffffffff1660e01b8152600401600060405180830381600087803b158015610ea657600080fd5b505af1925050508015610eb7575060015b610ec057610ec1565b5b6000600860009054906101000a900473ffffffffffffffffffffffffffffffffffffffff1673ffffffffffffffffffffffffffffffffffffffff16633ddac953600760009054906101000a900473ffffffffffffffffffffffffffffffffffffffff16670de0b6b3a76400006040518363ffffffff1660e01b8152600401610f4a9291906121f9565b60206040518083038186803b158015610f6257600080fd5b505afa158015610f76573d6000803e3d6000fd5b505050506040513d601f19601f82011682018060405250810190610f9a9190611bca565b90507f9193344cc8802d31c4aa2815214e792efa5a9fa7daa8e102ab2ad3576e74b51b81604051610fcb919061247e565b60405180910390a18091505090565b60c881565b6000600160008473ffffffffffffffffffffffffffffffffffffffff1673ffffffffffffffffffffffffffffffffffffffff16815260200190815260200160002060008373ffffffffffffffffffffffffffffffffffffffff1673ffffffffffffffffffffffffffffffffffffffff16815260200190815260200160002054905092915050565b61106e6118e6565b600073ffffffffffffffffffffffffffffffffffffffff168173ffffffffffffffffffffffffffffffffffffffff1614156110de576040517f08c379a00000000000000000000000000000000000000000000000000000000081526004016110d5906122fe565b60405180910390fd5b6110e781611964565b50565b600033905090565b600073ffffffffffffffffffffffffffffffffffffffff168373ffffffffffffffffffffffffffffffffffffffff161415611162576040517f08c379a0000000000000000000000000000000000000000000000000000000008152600401611159906123fe565b60405180910390fd5b600073ffffffffffffffffffffffffffffffffffffffff168273ffffffffffffffffffffffffffffffffffffffff1614156111d2576040517f08c379a00000000000000000000000000000000000000000000000000000000081526004016111c99061231e565b60405180910390fd5b80600160008573ffffffffffffffffffffffffffffffffffffffff1673ffffffffffffffffffffffffffffffffffffffff16815260200190815260200160002060008473ffffffffffffffffffffffffffffffffffffffff1673ffffffffffffffffffffffffffffffffffffffff168152602001908152602001600020819055508173ffffffffffffffffffffffffffffffffffffffff168373ffffffffffffffffffffffffffffffffffffffff167f8c5be1e5ebec7d5bd14f71427d1e84f3dd0314c0f7b2291e5b200ac8c7c3b925836040516112b0919061247e565b60405180910390a3505050565b60006112c98484610fdf565b90507fffffffffffffffffffffffffffffffffffffffffffffffffffffffffffffffff81146113435781811015611335576040517f08c379a000000000000000000000000000000000000000000000000000000000815260040161132c9061235e565b60405180910390fd5b61134284848484036110f2565b5b50505050565b600073ffffffffffffffffffffffffffffffffffffffff168373ffffffffffffffffffffffffffffffffffffffff1614156113b9576040517f08c379a00000000000000000000000000000000000000000000000000000000081526004016113b0906123de565b60405180910390fd5b600073ffffffffffffffffffffffffffffffffffffffff168273ffffffffffffffffffffffffffffffffffffffff161415611429576040517f08c379a0000000000000000000000000000000000000000000000000000000008152600401611420906122be565b60405180910390fd5b611434838383611a2a565b60008060008573ffffffffffffffffffffffffffffffffffffffff1673ffffffffffffffffffffffffffffffffffffffff168152602001908152602001600020549050818110156114ba576040517f08c379a00000000000000000000000000000000000000000000000000000000081526004016114b19061237e565b60405180910390fd5b8181036000808673ffffffffffffffffffffffffffffffffffffffff1673ffffffffffffffffffffffffffffffffffffffff16815260200190815260200160002081905550816000808573ffffffffffffffffffffffffffffffffffffffff1673ffffffffffffffffffffffffffffffffffffffff168152602001908152602001600020600082825401925050819055508273ffffffffffffffffffffffffffffffffffffffff168473ffffffffffffffffffffffffffffffffffffffff167fddf252ad1be2c89b69c2b068fc378daa952ba7f163c4a11628f55a4df523b3ef846040516115a8919061247e565b60405180910390a36115bb848484611a2f565b50505050565b600073ffffffffffffffffffffffffffffffffffffffff168273ffffffffffffffffffffffffffffffffffffffff161415611631576040517f08c379a0000000000000000000000000000000000000000000000000000000008152600401611628906123be565b60405180910390fd5b61163d82600083611a2a565b60008060008473ffffffffffffffffffffffffffffffffffffffff1673ffffffffffffffffffffffffffffffffffffffff168152602001908152602001600020549050818110156116c3576040517f08c379a00000000000000000000000000000000000000000000000000000000081526004016116ba906122de565b60405180910390fd5b8181036000808573ffffffffffffffffffffffffffffffffffffffff1673ffffffffffffffffffffffffffffffffffffffff1681526020019081526020016000208190555081600260008282540392505081905550600073ffffffffffffffffffffffffffffffffffffffff168373ffffffffffffffffffffffffffffffffffffffff167fddf252ad1be2c89b69c2b068fc378daa952ba7f163c4a11628f55a4df523b3ef84604051611776919061247e565b60405180910390a361178a83600084611a2f565b505050565b600073ffffffffffffffffffffffffffffffffffffffff168273ffffffffffffffffffffffffffffffffffffffff1614156117ff576040517f08c379a00000000000000000000000000000000000000000000000000000000081526004016117f69061245e565b60405180910390fd5b61180b60008383611a2a565b806002600082825461181d91906124d0565b92505081905550806000808473ffffffffffffffffffffffffffffffffffffffff1673ffffffffffffffffffffffffffffffffffffffff168152602001908152602001600020600082825401925050819055508173ffffffffffffffffffffffffffffffffffffffff16600073ffffffffffffffffffffffffffffffffffffffff167fddf252ad1be2c89b69c2b068fc378daa952ba7f163c4a11628f55a4df523b3ef836040516118ce919061247e565b60405180910390a36118e260008383611a2f565b5050565b6118ee6110ea565b73ffffffffffffffffffffffffffffffffffffffff1661190c610b1f565b73ffffffffffffffffffffffffffffffffffffffff1614611962576040517f08c379a00000000000000000000000000000000000000000000000000000000081526004016119599061239e565b60405180910390fd5b565b6000600560009054906101000a900473ffffffffffffffffffffffffffffffffffffffff16905081600560006101000a81548173ffffffffffffffffffffffffffffffffffffffff021916908373ffffffffffffffffffffffffffffffffffffffff1602179055508173ffffffffffffffffffffffffffffffffffffffff168173ffffffffffffffffffffffffffffffffffffffff167f8be0079c531659141344cd1fd0a4f28419497f9722a3daafe3b4186f6b6457e060405160405180910390a35050565b505050565b505050565b600081359050611a4381612797565b92915050565b600081519050611a58816127ae565b92915050565b600081359050611a6d816127c5565b92915050565b600081519050611a82816127c5565b92915050565b600060208284031215611a9a57600080fd5b6000611aa884828501611a34565b91505092915050565b60008060408385031215611ac457600080fd5b6000611ad285828601611a34565b9250506020611ae385828601611a34565b9150509250929050565b600080600060608486031215611b0257600080fd5b6000611b1086828701611a34565b9350506020611b2186828701611a34565b9250506040611b3286828701611a5e565b9150509250925092565b60008060408385031215611b4f57600080fd5b6000611b5d85828601611a34565b9250506020611b6e85828601611a5e565b9150509250929050565b600060208284031215611b8a57600080fd5b6000611b9884828501611a49565b91505092915050565b600060208284031215611bb357600080fd5b6000611bc184828501611a5e565b91505092915050565b600060208284031215611bdc57600080fd5b6000611bea84828501611a73565b91505092915050565b60008060408385031215611c0657600080fd5b6000611c1485828601611a5e565b9250506020611c2585828601611a5e565b9150509250929050565b611c38816125e5565b82525050565b611c47816125f7565b82525050565b611c568161263a565b82525050565b611c658161265e565b82525050565b611c7481612682565b82525050565b6000611c85826124b4565b611c8f81856124bf565b9350611c9f818560208601612694565b611ca881612786565b840191505092915050565b6000611cc06023836124bf565b91507f45524332303a207472616e7366657220746f20746865207a65726f206164647260008301527f65737300000000000000000000000000000000000000000000000000000000006020830152604082019050919050565b6000611d266022836124bf565b91507f45524332303a206275726e20616d6f756e7420657863656564732062616c616e60008301527f63650000000000000000000000000000000000000000000000000000000000006020830152604082019050919050565b6000611d8c6026836124bf565b91507f4f776e61626c653a206e6577206f776e657220697320746865207a65726f206160008301527f64647265737300000000000000000000000000000000000000000000000000006020830152604082019050919050565b6000611df26022836124bf565b91507f45524332303a20617070726f766520746f20746865207a65726f20616464726560008301527f73730000000000000000000000000000000000000000000000000000000000006020830152604082019050919050565b6000611e586010836124bf565b91507f43616e6e6f74206c6971756964617465000000000000000000000000000000006000830152602082019050919050565b6000611e98601d836124bf565b91507f45524332303a20696e73756666696369656e7420616c6c6f77616e63650000006000830152602082019050919050565b6000611ed86026836124bf565b91507f45524332303a207472616e7366657220616d6f756e742065786365656473206260008301527f616c616e636500000000000000000000000000000000000000000000000000006020830152604082019050919050565b6000611f3e6020836124bf565b91507f4f776e61626c653a2063616c6c6572206973206e6f7420746865206f776e65726000830152602082019050919050565b6000611f7e6021836124bf565b91507f45524332303a206275726e2066726f6d20746865207a65726f2061646472657360008301527f73000000000000000000000000000000000000000000000000000000000000006020830152604082019050919050565b6000611fe46025836124bf565b91507f45524332303a207472616e736665722066726f6d20746865207a65726f20616460008301527f64726573730000000000000000000000000000000000000000000000000000006020830152604082019050919050565b600061204a6024836124bf565b91507f45524332303a20617070726f76652066726f6d20746865207a65726f2061646460008301527f72657373000000000000000000000000000000000000000000000000000000006020830152604082019050919050565b60006120b06017836124bf565b91507f496e73756666696369656e7420636f6c6c61746572616c0000000000000000006000830152602082019050919050565b60006120f06025836124bf565b91507f45524332303a2064656372656173656420616c6c6f77616e63652062656c6f7760008301527f207a65726f0000000000000000000000000000000000000000000000000000006020830152604082019050919050565b6000612156601f836124bf565b91507f45524332303a206d696e7420746f20746865207a65726f2061646472657373006000830152602082019050919050565b61219281612623565b82525050565b6121a18161262d565b82525050565b60006020820190506121bc6000830184611c2f565b92915050565b60006060820190506121d76000830186611c2f565b6121e46020830185611c2f565b6121f16040830184612189565b949350505050565b600060408201905061220e6000830185611c2f565b61221b6020830184611c6b565b9392505050565b60006040820190506122376000830185611c2f565b6122446020830184612189565b9392505050565b60006020820190506122606000830184611c3e565b92915050565b600060208201905061227b6000830184611c4d565b92915050565b60006020820190506122966000830184611c5c565b92915050565b600060208201905081810360008301526122b68184611c7a565b905092915050565b600060208201905081810360008301526122d781611cb3565b9050919050565b600060208201905081810360008301526122f781611d19565b9050919050565b6000602082019050818103600083015261231781611d7f565b9050919050565b6000602082019050818103600083015261233781611de5565b9050919050565b6000602082019050818103600083015261235781611e4b565b9050919050565b6000602082019050818103600083015261237781611e8b565b9050919050565b6000602082019050818103600083015261239781611ecb565b9050919050565b600060208201905081810360008301526123b781611f31565b9050919050565b600060208201905081810360008301526123d781611f71565b9050919050565b600060208201905081810360008301526123f781611fd7565b9050919050565b600060208201905081810360008301526124178161203d565b9050919050565b60006020820190508181036000830152612437816120a3565b9050919050565b60006020820190508181036000830152612457816120e3565b9050919050565b6000602082019050818103600083015261247781612149565b9050919050565b60006020820190506124936000830184612189565b92915050565b60006020820190506124ae6000830184612198565b92915050565b600081519050919050565b600082825260208201905092915050565b60006124db82612623565b91506124e683612623565b9250827fffffffffffffffffffffffffffffffffffffffffffffffffffffffffffffffff0382111561251b5761251a6126f9565b5b828201905092915050565b600061253182612623565b915061253c83612623565b92508261254c5761254b612728565b5b828204905092915050565b600061256282612623565b915061256d83612623565b9250817fffffffffffffffffffffffffffffffffffffffffffffffffffffffffffffffff04831182151516156125a6576125a56126f9565b5b828202905092915050565b60006125bc82612623565b91506125c783612623565b9250828210156125da576125d96126f9565b5b828203905092915050565b60006125f082612603565b9050919050565b60008115159050919050565b600073ffffffffffffffffffffffffffffffffffffffff82169050919050565b6000819050919050565b600060ff82169050919050565b60006126458261264c565b9050919050565b600061265782612603565b9050919050565b600061266982612670565b9050919050565b600061267b82612603565b9050919050565b600061268d82612623565b9050919050565b60005b838110156126b2578082015181840152602081019050612697565b838111156126c1576000848401525b50505050565b600060028204905060018216806126df57607f821691505b602082108114156126f3576126f2612757565b5b50919050565b7f4e487b7100000000000000000000000000000000000000000000000000000000600052601160045260246000fd5b7f4e487b7100000000000000000000000000000000000000000000000000000000600052601260045260246000fd5b7f4e487b7100000000000000000000000000000000000000000000000000000000600052602260045260246000fd5b6000601f19601f8301169050919050565b6127a0816125e5565b81146127ab57600080fd5b50565b6127b7816125f7565b81146127c257600080fd5b50565b6127ce81612623565b81146127d957600080fd5b5056fea2646970667358221220c810de8c2f7465c787e1caaab06fb6bf293a558a2b0b799e12bafbc9d3a584ba64736f6c63430008000033",
  "linkReferences": {},
  "deployedLinkReferences": {}
}