{
  "_format": "hh-sol-artifact-1",
  "contractName": "Nuggets",
  "sourceName": "contracts/Nuggets.sol",
  "abi": [
    {
      "inputs": [
        {
          "internalType": "address",
          "name": "_stETHAddress",
          "type": "address"
        },
        {
          "internalType": "address",
          "name": "_stEthPriceFeedAddress",
          "type": "address"
        },
        {
          "internalType": "address",
          "name": "_goldPriceFeedAddress",
          "type": "address"
        }
      ],
      "stateMutability": "nonpayable",
      "type": "constructor"
    },
    {
      "anonymous": false,
      "inputs": [
        {
          "indexed": true,
          "internalType": "address",
          "name": "owner",
          "type": "address"
        },
        {
          "indexed": true,
          "internalType": "address",
          "name": "spender",
          "type": "address"
        },
        {
          "indexed": false,
          "internalType": "uint256",
          "name": "value",
          "type": "uint256"
        }
      ],
      "name": "Approval",
      "type": "event"
    },
    {
      "anonymous": false,
      "inputs": [
        {
          "indexed": true,
          "internalType": "address",
          "name": "previousOwner",
          "type": "address"
        },
        {
          "indexed": true,
          "internalType": "address",
          "name": "newOwner",
          "type": "address"
        }
      ],
      "name": "OwnershipTransferred",
      "type": "event"
    },
    {
      "anonymous": false,
      "inputs": [
        {
          "indexed": false,
          "internalType": "uint256",
          "name": "priceInUsd",
          "type": "uint256"
        }
      ],
      "name": "StethPriceUpdated",
      "type": "event"
    },
    {
      "anonymous": false,
      "inputs": [
        {
          "indexed": true,
          "internalType": "address",
          "name": "from",
          "type": "address"
        },
        {
          "indexed": true,
          "internalType": "address",
          "name": "to",
          "type": "address"
        },
        {
          "indexed": false,
          "internalType": "uint256",
          "name": "value",
          "type": "uint256"
        }
      ],
      "name": "Transfer",
      "type": "event"
    },
    {
      "inputs": [],
      "name": "COLLATERAL_RATIO",
      "outputs": [
        {
          "internalType": "uint256",
          "name": "",
          "type": "uint256"
        }
      ],
      "stateMutability": "view",
      "type": "function"
    },
    {
      "inputs": [],
      "name": "LIQUIDATION_FEE",
      "outputs": [
        {
          "internalType": "uint256",
          "name": "",
          "type": "uint256"
        }
      ],
      "stateMutability": "view",
      "type": "function"
    },
    {
      "inputs": [],
      "name": "LIQUIDATION_RATIO",
      "outputs": [
        {
          "internalType": "uint256",
          "name": "",
          "type": "uint256"
        }
      ],
      "stateMutability": "view",
      "type": "function"
    },
    {
      "inputs": [
        {
          "internalType": "address",
          "name": "owner",
          "type": "address"
        },
        {
          "internalType": "address",
          "name": "spender",
          "type": "address"
        }
      ],
      "name": "allowance",
      "outputs": [
        {
          "internalType": "uint256",
          "name": "",
          "type": "uint256"
        }
      ],
      "stateMutability": "view",
      "type": "function"
    },
    {
      "inputs": [
        {
          "internalType": "address",
          "name": "spender",
          "type": "address"
        },
        {
          "internalType": "uint256",
          "name": "amount",
          "type": "uint256"
        }
      ],
      "name": "approve",
      "outputs": [
        {
          "internalType": "bool",
          "name": "",
          "type": "bool"
        }
      ],
      "stateMutability": "nonpayable",
      "type": "function"
    },
    {
      "inputs": [
        {
          "internalType": "address",
          "name": "account",
          "type": "address"
        }
      ],
      "name": "balanceOf",
      "outputs": [
        {
          "internalType": "uint256",
          "name": "",
          "type": "uint256"
        }
      ],
      "stateMutability": "view",
      "type": "function"
    },
    {
      "inputs": [
        {
          "internalType": "uint256",
          "name": "stEthAmount",
          "type": "uint256"
        }
      ],
      "name": "borrow",
      "outputs": [],
      "stateMutability": "nonpayable",
      "type": "function"
    },
    {
      "inputs": [
        {
          "internalType": "uint256",
          "name": "stEthAmount",
          "type": "uint256"
        },
        {
          "internalType": "uint256",
          "name": "stEthPriceInUsd",
          "type": "uint256"
        },
        {
          "internalType": "uint256",
          "name": "goldPriceInUsd",
          "type": "uint256"
        }
      ],
      "name": "calculateNuggetsAmount",
      "outputs": [
        {
          "internalType": "uint256",
          "name": "",
          "type": "uint256"
        }
      ],
      "stateMutability": "pure",
      "type": "function"
    },
    {
      "inputs": [
        {
          "internalType": "address",
          "name": "",
          "type": "address"
        }
      ],
      "name": "collateral",
      "outputs": [
        {
          "internalType": "uint256",
          "name": "",
          "type": "uint256"
        }
      ],
      "stateMutability": "view",
      "type": "function"
    },
    {
      "inputs": [],
      "name": "decimals",
      "outputs": [
        {
          "internalType": "uint8",
          "name": "",
          "type": "uint8"
        }
      ],
      "stateMutability": "view",
      "type": "function"
    },
    {
      "inputs": [
        {
          "internalType": "address",
          "name": "spender",
          "type": "address"
        },
        {
          "internalType": "uint256",
          "name": "subtractedValue",
          "type": "uint256"
        }
      ],
      "name": "decreaseAllowance",
      "outputs": [
        {
          "internalType": "bool",
          "name": "",
          "type": "bool"
        }
      ],
      "stateMutability": "nonpayable",
      "type": "function"
    },
    {
      "inputs": [],
      "name": "getGoldPriceInUsd",
      "outputs": [
        {
          "internalType": "uint256",
          "name": "",
          "type": "uint256"
        }
      ],
      "stateMutability": "view",
      "type": "function"
    },
    {
      "inputs": [
        {
          "internalType": "address",
          "name": "account",
          "type": "address"
        }
      ],
      "name": "getStethBalance",
      "outputs": [
        {
          "internalType": "uint256",
          "name": "",
          "type": "uint256"
        }
      ],
      "stateMutability": "view",
      "type": "function"
    },
    {
      "inputs": [],
      "name": "getStethPriceInUsd",
      "outputs": [
        {
          "internalType": "uint256",
          "name": "",
          "type": "uint256"
        }
      ],
      "stateMutability": "view",
      "type": "function"
    },
    {
      "inputs": [],
      "name": "goldPriceFeed",
      "outputs": [
        {
          "internalType": "contract AggregatorV3Interface",
          "name": "",
          "type": "address"
        }
      ],
      "stateMutability": "view",
      "type": "function"
    },
    {
      "inputs": [
        {
          "internalType": "address",
          "name": "spender",
          "type": "address"
        },
        {
          "internalType": "uint256",
          "name": "addedValue",
          "type": "uint256"
        }
      ],
      "name": "increaseAllowance",
      "outputs": [
        {
          "internalType": "bool",
          "name": "",
          "type": "bool"
        }
      ],
      "stateMutability": "nonpayable",
      "type": "function"
    },
    {
      "inputs": [
        {
          "internalType": "address",
          "name": "account",
          "type": "address"
        }
      ],
      "name": "liquidate",
      "outputs": [],
      "stateMutability": "nonpayable",
      "type": "function"
    },
    {
      "inputs": [],
      "name": "name",
      "outputs": [
        {
          "internalType": "string",
          "name": "",
          "type": "string"
        }
      ],
      "stateMutability": "view",
      "type": "function"
    },
    {
      "inputs": [],
      "name": "owner",
      "outputs": [
        {
          "internalType": "address",
          "name": "",
          "type": "address"
        }
      ],
      "stateMutability": "view",
      "type": "function"
    },
    {
      "inputs": [],
      "name": "renounceOwnership",
      "outputs": [],
      "stateMutability": "nonpayable",
      "type": "function"
    },
    {
      "inputs": [
        {
          "internalType": "uint256",
          "name": "nuggetsAmount",
          "type": "uint256"
        }
      ],
      "name": "repay",
      "outputs": [],
      "stateMutability": "nonpayable",
      "type": "function"
    },
    {
      "inputs": [],
      "name": "stETH",
      "outputs": [
        {
          "internalType": "contract IERC20",
          "name": "",
          "type": "address"
        }
      ],
      "stateMutability": "view",
      "type": "function"
    },
    {
      "inputs": [],
      "name": "stEthPriceFeed",
      "outputs": [
        {
          "internalType": "contract AggregatorV3Interface",
          "name": "",
          "type": "address"
        }
      ],
      "stateMutability": "view",
      "type": "function"
    },
    {
      "inputs": [],
      "name": "symbol",
      "outputs": [
        {
          "internalType": "string",
          "name": "",
          "type": "string"
        }
      ],
      "stateMutability": "view",
      "type": "function"
    },
    {
      "inputs": [],
      "name": "totalSupply",
      "outputs": [
        {
          "internalType": "uint256",
          "name": "",
          "type": "uint256"
        }
      ],
      "stateMutability": "view",
      "type": "function"
    },
    {
      "inputs": [
        {
          "internalType": "address",
          "name": "to",
          "type": "address"
        },
        {
          "internalType": "uint256",
          "name": "amount",
          "type": "uint256"
        }
      ],
      "name": "transfer",
      "outputs": [
        {
          "internalType": "bool",
          "name": "",
          "type": "bool"
        }
      ],
      "stateMutability": "nonpayable",
      "type": "function"
    },
    {
      "inputs": [
        {
          "internalType": "address",
          "name": "from",
          "type": "address"
        },
        {
          "internalType": "address",
          "name": "to",
          "type": "address"
        },
        {
          "internalType": "uint256",
          "name": "amount",
          "type": "uint256"
        }
      ],
      "name": "transferFrom",
      "outputs": [
        {
          "internalType": "bool",
          "name": "",
          "type": "bool"
        }
      ],
      "stateMutability": "nonpayable",
      "type": "function"
    },
    {
      "inputs": [
        {
          "internalType": "address",
          "name": "newOwner",
          "type": "address"
        }
      ],
      "name": "transferOwnership",
      "outputs": [],
      "stateMutability": "nonpayable",
      "type": "function"
    }
  ],
  "bytecode": "0x60806040523480156200001157600080fd5b5060405162002ee138038062002ee1833981810160405281019062000037919062000358565b6040518060400160405280600781526020017f4e756767657473000000000000000000000000000000000000000000000000008152506040518060400160405280600381526020017f4e475400000000000000000000000000000000000000000000000000000000008152508160039080519060200190620000bb92919062000291565b508060049080519060200190620000d492919062000291565b505050620000f7620000eb620001c360201b60201c565b620001cb60201b60201c565b82600660006101000a81548173ffffffffffffffffffffffffffffffffffffffff021916908373ffffffffffffffffffffffffffffffffffffffff16021790555081600760006101000a81548173ffffffffffffffffffffffffffffffffffffffff021916908373ffffffffffffffffffffffffffffffffffffffff16021790555080600860006101000a81548173ffffffffffffffffffffffffffffffffffffffff021916908373ffffffffffffffffffffffffffffffffffffffff16021790555050505062000461565b600033905090565b6000600560009054906101000a900473ffffffffffffffffffffffffffffffffffffffff16905081600560006101000a81548173ffffffffffffffffffffffffffffffffffffffff021916908373ffffffffffffffffffffffffffffffffffffffff1602179055508173ffffffffffffffffffffffffffffffffffffffff168173ffffffffffffffffffffffffffffffffffffffff167f8be0079c531659141344cd1fd0a4f28419497f9722a3daafe3b4186f6b6457e060405160405180910390a35050565b8280546200029f90620003e2565b90600052602060002090601f016020900481019282620002c357600085556200030f565b82601f10620002de57805160ff19168380011785556200030f565b828001600101855582156200030f579182015b828111156200030e578251825591602001919060010190620002f1565b5b5090506200031e919062000322565b5090565b5b808211156200033d57600081600090555060010162000323565b5090565b600081519050620003528162000447565b92915050565b6000806000606084860312156200036e57600080fd5b60006200037e8682870162000341565b9350506020620003918682870162000341565b9250506040620003a48682870162000341565b9150509250925092565b6000620003bb82620003c2565b9050919050565b600073ffffffffffffffffffffffffffffffffffffffff82169050919050565b60006002820490506001821680620003fb57607f821691505b6020821081141562000412576200041162000418565b5b50919050565b7f4e487b7100000000000000000000000000000000000000000000000000000000600052602260045260246000fd5b6200045281620003ae565b81146200045e57600080fd5b50565b612a7080620004716000396000f3fe608060405234801561001057600080fd5b50600436106101c45760003560e01c806395d89b41116100f9578063c422f9d011610097578063d51ec56811610071578063d51ec56814610521578063d9e69a051461053f578063dd62ed3e1461055d578063f2fde38b1461058d576101c4565b8063c422f9d0146104c9578063c4323fea146104e7578063c5ebeaec14610505576101c4565b8063a9059cbb116100d3578063a9059cbb1461043f578063b18273301461046f578063b915989f1461048d578063c1fe3e48146104ab576101c4565b806395d89b41146103c1578063a457c2d7146103df578063a5fdc5de1461040f576101c4565b80633190480e1161016657806343ce854a1161014057806343ce854a1461033957806370a0823114610369578063715018a6146103995780638da5cb5b146103a3576101c4565b80633190480e146102cf578063371fd8e6146102ed5780633950935114610309576101c4565b806318160ddd116101a257806318160ddd1461024757806323b872dd146102655780632f86556814610295578063313ce567146102b1576101c4565b806306d4a201146101c957806306fdde03146101f9578063095ea7b314610217575b600080fd5b6101e360048036038101906101de9190611d71565b6105a9565b6040516101f091906126d4565b60405180910390f35b6102016105d0565b60405161020e91906124d2565b60405180910390f35b610231600480360381019061022c9190611cba565b610662565b60405161023e9190612481565b60405180910390f35b61024f610685565b60405161025c91906126d4565b60405180910390f35b61027f600480360381019061027a9190611c6b565b61068f565b60405161028c9190612481565b60405180910390f35b6102af60048036038101906102aa9190611c06565b6106be565b005b6102b96108ec565b6040516102c691906126ef565b60405180910390f35b6102d76108f5565b6040516102e4919061249c565b60405180910390f35b61030760048036038101906103029190611d1f565b61091b565b005b610323600480360381019061031e9190611cba565b610ade565b6040516103309190612481565b60405180910390f35b610353600480360381019061034e9190611c06565b610b15565b60405161036091906126d4565b60405180910390f35b610383600480360381019061037e9190611c06565b610bc9565b60405161039091906126d4565b60405180910390f35b6103a1610c11565b005b6103ab610c25565b6040516103b89190612406565b60405180910390f35b6103c9610c4f565b6040516103d691906124d2565b60405180910390f35b6103f960048036038101906103f49190611cba565b610ce1565b6040516104069190612481565b60405180910390f35b61042960048036038101906104249190611c06565b610d58565b60405161043691906126d4565b60405180910390f35b61045960048036038101906104549190611cba565b610d70565b6040516104669190612481565b60405180910390f35b610477610d93565b60405161048491906126d4565b60405180910390f35b610495610d98565b6040516104a291906126d4565b60405180910390f35b6104b3610e9b565b6040516104c091906124b7565b60405180910390f35b6104d1610ec1565b6040516104de919061249c565b60405180910390f35b6104ef610ee7565b6040516104fc91906126d4565b60405180910390f35b61051f600480360381019061051a9190611d1f565b610eec565b005b61052961102b565b60405161053691906126d4565b60405180910390f35b61054761112e565b60405161055491906126d4565b60405180910390f35b61057760048036038101906105729190611c2f565b611133565b60405161058491906126d4565b60405180910390f35b6105a760048036038101906105a29190611c06565b6111ba565b005b6000808284866105b991906127ad565b6105c3919061277c565b9050809150509392505050565b6060600380546105df906128f7565b80601f016020809104026020016040519081016040528092919081815260200182805461060b906128f7565b80156106585780601f1061062d57610100808354040283529160200191610658565b820191906000526020600020905b81548152906001019060200180831161063b57829003601f168201915b5050505050905090565b60008061066d61123e565b905061067a818585611246565b600191505092915050565b6000600254905090565b60008061069a61123e565b90506106a7858285611411565b6106b285858561149d565b60019150509392505050565b60006106c861102b565b905060006106d583610bc9565b905060c8816106e491906127ad565b606483600960008773ffffffffffffffffffffffffffffffffffffffff1673ffffffffffffffffffffffffffffffffffffffff1681526020019081526020016000205461073191906127ad565b61073b91906127ad565b1061077b576040517f08c379a0000000000000000000000000000000000000000000000000000000008152600401610772906125b4565b60405180910390fd5b6000606460058361078c91906127ad565b610796919061277c565b90506000600960008673ffffffffffffffffffffffffffffffffffffffff1673ffffffffffffffffffffffffffffffffffffffff168152602001908152602001600020549050600660009054906101000a900473ffffffffffffffffffffffffffffffffffffffff1673ffffffffffffffffffffffffffffffffffffffff1663a9059cbb33836040518363ffffffff1660e01b8152600401610839929190612458565b602060405180830381600087803b15801561085357600080fd5b505af1158015610867573d6000803e3d6000fd5b505050506040513d601f19601f8201168201806040525081019061088b9190611cf6565b506000600960008773ffffffffffffffffffffffffffffffffffffffff1673ffffffffffffffffffffffffffffffffffffffff168152602001908152602001600020819055506108db8584611715565b6108e533836118e3565b5050505050565b60006012905090565b600760009054906101000a900473ffffffffffffffffffffffffffffffffffffffff1681565b6000600960003373ffffffffffffffffffffffffffffffffffffffff1673ffffffffffffffffffffffffffffffffffffffff168152602001908152602001600020541161099d576040517f08c379a0000000000000000000000000000000000000000000000000000000008152600401610994906125d4565b60405180910390fd5b600660009054906101000a900473ffffffffffffffffffffffffffffffffffffffff1673ffffffffffffffffffffffffffffffffffffffff1663a9059cbb33600960003373ffffffffffffffffffffffffffffffffffffffff1673ffffffffffffffffffffffffffffffffffffffff168152602001908152602001600020546040518363ffffffff1660e01b8152600401610a39929190612458565b602060405180830381600087803b158015610a5357600080fd5b505af1158015610a67573d6000803e3d6000fd5b505050506040513d601f19601f82011682018060405250810190610a8b9190611cf6565b506000600960003373ffffffffffffffffffffffffffffffffffffffff1673ffffffffffffffffffffffffffffffffffffffff16815260200190815260200160002081905550610adb3382611715565b50565b600080610ae961123e565b9050610b0a818585610afb8589611133565b610b059190612726565b611246565b600191505092915050565b6000600660009054906101000a900473ffffffffffffffffffffffffffffffffffffffff1673ffffffffffffffffffffffffffffffffffffffff166370a08231836040518263ffffffff1660e01b8152600401610b729190612406565b60206040518083038186803b158015610b8a57600080fd5b505afa158015610b9e573d6000803e3d6000fd5b505050506040513d601f19601f82011682018060405250810190610bc29190611d48565b9050919050565b60008060008373ffffffffffffffffffffffffffffffffffffffff1673ffffffffffffffffffffffffffffffffffffffff168152602001908152602001600020549050919050565b610c19611a3a565b610c236000611ab8565b565b6000600560009054906101000a900473ffffffffffffffffffffffffffffffffffffffff16905090565b606060048054610c5e906128f7565b80601f0160208091040260200160405190810160405280929190818152602001828054610c8a906128f7565b8015610cd75780601f10610cac57610100808354040283529160200191610cd7565b820191906000526020600020905b815481529060010190602001808311610cba57829003601f168201915b5050505050905090565b600080610cec61123e565b90506000610cfa8286611133565b905083811015610d3f576040517f08c379a0000000000000000000000000000000000000000000000000000000008152600401610d3690612694565b60405180910390fd5b610d4c8286868403611246565b60019250505092915050565b60096020528060005260406000206000915090505481565b600080610d7b61123e565b9050610d8881858561149d565b600191505092915050565b600581565b600080600860009054906101000a900473ffffffffffffffffffffffffffffffffffffffff1673ffffffffffffffffffffffffffffffffffffffff1663feaf968c6040518163ffffffff1660e01b815260040160a06040518083038186803b158015610e0357600080fd5b505afa158015610e17573d6000803e3d6000fd5b505050506040513d601f19601f82011682018060405250810190610e3b9190611dc0565b50505091505060008113610e84576040517f08c379a0000000000000000000000000000000000000000000000000000000008152600401610e7b90612674565b60405180910390fd5b6402540be40081610e9591906127ad565b91505090565b600660009054906101000a900473ffffffffffffffffffffffffffffffffffffffff1681565b600860009054906101000a900473ffffffffffffffffffffffffffffffffffffffff1681565b609681565b6000610ef661102b565b90506000610f02610d98565b90506000610f118484846105a9565b9050600660009054906101000a900473ffffffffffffffffffffffffffffffffffffffff1673ffffffffffffffffffffffffffffffffffffffff166323b872dd3330876040518463ffffffff1660e01b8152600401610f7293929190612421565b602060405180830381600087803b158015610f8c57600080fd5b505af1158015610fa0573d6000803e3d6000fd5b505050506040513d601f19601f82011682018060405250810190610fc49190611cf6565b5083600960003373ffffffffffffffffffffffffffffffffffffffff1673ffffffffffffffffffffffffffffffffffffffff16815260200190815260200160002060008282546110149190612726565b9250508190555061102533826118e3565b50505050565b600080600760009054906101000a900473ffffffffffffffffffffffffffffffffffffffff1673ffffffffffffffffffffffffffffffffffffffff1663feaf968c6040518163ffffffff1660e01b815260040160a06040518083038186803b15801561109657600080fd5b505afa1580156110aa573d6000803e3d6000fd5b505050506040513d601f19601f820116820180604052508101906110ce9190611dc0565b50505091505060008113611117576040517f08c379a000000000000000000000000000000000000000000000000000000000815260040161110e90612674565b60405180910390fd5b6402540be4008161112891906127ad565b91505090565b60c881565b6000600160008473ffffffffffffffffffffffffffffffffffffffff1673ffffffffffffffffffffffffffffffffffffffff16815260200190815260200160002060008373ffffffffffffffffffffffffffffffffffffffff1673ffffffffffffffffffffffffffffffffffffffff16815260200190815260200160002054905092915050565b6111c2611a3a565b600073ffffffffffffffffffffffffffffffffffffffff168173ffffffffffffffffffffffffffffffffffffffff161415611232576040517f08c379a000000000000000000000000000000000000000000000000000000000815260040161122990612534565b60405180910390fd5b61123b81611ab8565b50565b600033905090565b600073ffffffffffffffffffffffffffffffffffffffff168373ffffffffffffffffffffffffffffffffffffffff1614156112b6576040517f08c379a00000000000000000000000000000000000000000000000000000000081526004016112ad90612654565b60405180910390fd5b600073ffffffffffffffffffffffffffffffffffffffff168273ffffffffffffffffffffffffffffffffffffffff161415611326576040517f08c379a000000000000000000000000000000000000000000000000000000000815260040161131d90612554565b60405180910390fd5b80600160008573ffffffffffffffffffffffffffffffffffffffff1673ffffffffffffffffffffffffffffffffffffffff16815260200190815260200160002060008473ffffffffffffffffffffffffffffffffffffffff1673ffffffffffffffffffffffffffffffffffffffff168152602001908152602001600020819055508173ffffffffffffffffffffffffffffffffffffffff168373ffffffffffffffffffffffffffffffffffffffff167f8c5be1e5ebec7d5bd14f71427d1e84f3dd0314c0f7b2291e5b200ac8c7c3b9258360405161140491906126d4565b60405180910390a3505050565b600061141d8484611133565b90507fffffffffffffffffffffffffffffffffffffffffffffffffffffffffffffffff81146114975781811015611489576040517f08c379a000000000000000000000000000000000000000000000000000000000815260040161148090612574565b60405180910390fd5b6114968484848403611246565b5b50505050565b600073ffffffffffffffffffffffffffffffffffffffff168373ffffffffffffffffffffffffffffffffffffffff16141561150d576040517f08c379a000000000000000000000000000000000000000000000000000000000815260040161150490612634565b60405180910390fd5b600073ffffffffffffffffffffffffffffffffffffffff168273ffffffffffffffffffffffffffffffffffffffff16141561157d576040517f08c379a0000000000000000000000000000000000000000000000000000000008152600401611574906124f4565b60405180910390fd5b611588838383611b7e565b60008060008573ffffffffffffffffffffffffffffffffffffffff1673ffffffffffffffffffffffffffffffffffffffff1681526020019081526020016000205490508181101561160e576040517f08c379a000000000000000000000000000000000000000000000000000000000815260040161160590612594565b60405180910390fd5b8181036000808673ffffffffffffffffffffffffffffffffffffffff1673ffffffffffffffffffffffffffffffffffffffff16815260200190815260200160002081905550816000808573ffffffffffffffffffffffffffffffffffffffff1673ffffffffffffffffffffffffffffffffffffffff168152602001908152602001600020600082825401925050819055508273ffffffffffffffffffffffffffffffffffffffff168473ffffffffffffffffffffffffffffffffffffffff167fddf252ad1be2c89b69c2b068fc378daa952ba7f163c4a11628f55a4df523b3ef846040516116fc91906126d4565b60405180910390a361170f848484611b83565b50505050565b600073ffffffffffffffffffffffffffffffffffffffff168273ffffffffffffffffffffffffffffffffffffffff161415611785576040517f08c379a000000000000000000000000000000000000000000000000000000000815260040161177c90612614565b60405180910390fd5b61179182600083611b7e565b60008060008473ffffffffffffffffffffffffffffffffffffffff1673ffffffffffffffffffffffffffffffffffffffff16815260200190815260200160002054905081811015611817576040517f08c379a000000000000000000000000000000000000000000000000000000000815260040161180e90612514565b60405180910390fd5b8181036000808573ffffffffffffffffffffffffffffffffffffffff1673ffffffffffffffffffffffffffffffffffffffff1681526020019081526020016000208190555081600260008282540392505081905550600073ffffffffffffffffffffffffffffffffffffffff168373ffffffffffffffffffffffffffffffffffffffff167fddf252ad1be2c89b69c2b068fc378daa952ba7f163c4a11628f55a4df523b3ef846040516118ca91906126d4565b60405180910390a36118de83600084611b83565b505050565b600073ffffffffffffffffffffffffffffffffffffffff168273ffffffffffffffffffffffffffffffffffffffff161415611953576040517f08c379a000000000000000000000000000000000000000000000000000000000815260040161194a906126b4565b60405180910390fd5b61195f60008383611b7e565b80600260008282546119719190612726565b92505081905550806000808473ffffffffffffffffffffffffffffffffffffffff1673ffffffffffffffffffffffffffffffffffffffff168152602001908152602001600020600082825401925050819055508173ffffffffffffffffffffffffffffffffffffffff16600073ffffffffffffffffffffffffffffffffffffffff167fddf252ad1be2c89b69c2b068fc378daa952ba7f163c4a11628f55a4df523b3ef83604051611a2291906126d4565b60405180910390a3611a3660008383611b83565b5050565b611a4261123e565b73ffffffffffffffffffffffffffffffffffffffff16611a60610c25565b73ffffffffffffffffffffffffffffffffffffffff1614611ab6576040517f08c379a0000000000000000000000000000000000000000000000000000000008152600401611aad906125f4565b60405180910390fd5b565b6000600560009054906101000a900473ffffffffffffffffffffffffffffffffffffffff16905081600560006101000a81548173ffffffffffffffffffffffffffffffffffffffff021916908373ffffffffffffffffffffffffffffffffffffffff1602179055508173ffffffffffffffffffffffffffffffffffffffff168173ffffffffffffffffffffffffffffffffffffffff167f8be0079c531659141344cd1fd0a4f28419497f9722a3daafe3b4186f6b6457e060405160405180910390a35050565b505050565b505050565b600081359050611b97816129c7565b92915050565b600081519050611bac816129de565b92915050565b600081519050611bc1816129f5565b92915050565b600081359050611bd681612a0c565b92915050565b600081519050611beb81612a0c565b92915050565b600081519050611c0081612a23565b92915050565b600060208284031215611c1857600080fd5b6000611c2684828501611b88565b91505092915050565b60008060408385031215611c4257600080fd5b6000611c5085828601611b88565b9250506020611c6185828601611b88565b9150509250929050565b600080600060608486031215611c8057600080fd5b6000611c8e86828701611b88565b9350506020611c9f86828701611b88565b9250506040611cb086828701611bc7565b9150509250925092565b60008060408385031215611ccd57600080fd5b6000611cdb85828601611b88565b9250506020611cec85828601611bc7565b9150509250929050565b600060208284031215611d0857600080fd5b6000611d1684828501611b9d565b91505092915050565b600060208284031215611d3157600080fd5b6000611d3f84828501611bc7565b91505092915050565b600060208284031215611d5a57600080fd5b6000611d6884828501611bdc565b91505092915050565b600080600060608486031215611d8657600080fd5b6000611d9486828701611bc7565b9350506020611da586828701611bc7565b9250506040611db686828701611bc7565b9150509250925092565b600080600080600060a08688031215611dd857600080fd5b6000611de688828901611bf1565b9550506020611df788828901611bb2565b9450506040611e0888828901611bdc565b9350506060611e1988828901611bdc565b9250506080611e2a88828901611bf1565b9150509295509295909350565b611e4081612807565b82525050565b611e4f81612819565b82525050565b611e5e8161287c565b82525050565b611e6d816128a0565b82525050565b6000611e7e8261270a565b611e888185612715565b9350611e988185602086016128c4565b611ea1816129b6565b840191505092915050565b6000611eb9602383612715565b91507f45524332303a207472616e7366657220746f20746865207a65726f206164647260008301527f65737300000000000000000000000000000000000000000000000000000000006020830152604082019050919050565b6000611f1f602283612715565b91507f45524332303a206275726e20616d6f756e7420657863656564732062616c616e60008301527f63650000000000000000000000000000000000000000000000000000000000006020830152604082019050919050565b6000611f85602683612715565b91507f4f776e61626c653a206e6577206f776e657220697320746865207a65726f206160008301527f64647265737300000000000000000000000000000000000000000000000000006020830152604082019050919050565b6000611feb602283612715565b91507f45524332303a20617070726f766520746f20746865207a65726f20616464726560008301527f73730000000000000000000000000000000000000000000000000000000000006020830152604082019050919050565b6000612051601d83612715565b91507f45524332303a20696e73756666696369656e7420616c6c6f77616e63650000006000830152602082019050919050565b6000612091602683612715565b91507f45524332303a207472616e7366657220616d6f756e742065786365656473206260008301527f616c616e636500000000000000000000000000000000000000000000000000006020830152604082019050919050565b60006120f7603783612715565b91507f43616e6e6f74206c697175696461746520612073756666696369656e746c792060008301527f636f6c6c61746572616c6973656420706f736974696f6e0000000000000000006020830152604082019050919050565b600061215d601683612715565b91507f4e6f20636f6c6c61746572616c20746f207265706179000000000000000000006000830152602082019050919050565b600061219d602083612715565b91507f4f776e61626c653a2063616c6c6572206973206e6f7420746865206f776e65726000830152602082019050919050565b60006121dd602183612715565b91507f45524332303a206275726e2066726f6d20746865207a65726f2061646472657360008301527f73000000000000000000000000000000000000000000000000000000000000006020830152604082019050919050565b6000612243602583612715565b91507f45524332303a207472616e736665722066726f6d20746865207a65726f20616460008301527f64726573730000000000000000000000000000000000000000000000000000006020830152604082019050919050565b60006122a9602483612715565b91507f45524332303a20617070726f76652066726f6d20746865207a65726f2061646460008301527f72657373000000000000000000000000000000000000000000000000000000006020830152604082019050919050565b600061230f601283612715565b91507f496e76616c6964207072696365206665656400000000000000000000000000006000830152602082019050919050565b600061234f602583612715565b91507f45524332303a2064656372656173656420616c6c6f77616e63652062656c6f7760008301527f207a65726f0000000000000000000000000000000000000000000000000000006020830152604082019050919050565b60006123b5601f83612715565b91507f45524332303a206d696e7420746f20746865207a65726f2061646472657373006000830152602082019050919050565b6123f18161284f565b82525050565b61240081612859565b82525050565b600060208201905061241b6000830184611e37565b92915050565b60006060820190506124366000830186611e37565b6124436020830185611e37565b61245060408301846123e8565b949350505050565b600060408201905061246d6000830185611e37565b61247a60208301846123e8565b9392505050565b60006020820190506124966000830184611e46565b92915050565b60006020820190506124b16000830184611e55565b92915050565b60006020820190506124cc6000830184611e64565b92915050565b600060208201905081810360008301526124ec8184611e73565b905092915050565b6000602082019050818103600083015261250d81611eac565b9050919050565b6000602082019050818103600083015261252d81611f12565b9050919050565b6000602082019050818103600083015261254d81611f78565b9050919050565b6000602082019050818103600083015261256d81611fde565b9050919050565b6000602082019050818103600083015261258d81612044565b9050919050565b600060208201905081810360008301526125ad81612084565b9050919050565b600060208201905081810360008301526125cd816120ea565b9050919050565b600060208201905081810360008301526125ed81612150565b9050919050565b6000602082019050818103600083015261260d81612190565b9050919050565b6000602082019050818103600083015261262d816121d0565b9050919050565b6000602082019050818103600083015261264d81612236565b9050919050565b6000602082019050818103600083015261266d8161229c565b9050919050565b6000602082019050818103600083015261268d81612302565b9050919050565b600060208201905081810360008301526126ad81612342565b9050919050565b600060208201905081810360008301526126cd816123a8565b9050919050565b60006020820190506126e960008301846123e8565b92915050565b600060208201905061270460008301846123f7565b92915050565b600081519050919050565b600082825260208201905092915050565b60006127318261284f565b915061273c8361284f565b9250827fffffffffffffffffffffffffffffffffffffffffffffffffffffffffffffffff0382111561277157612770612929565b5b828201905092915050565b60006127878261284f565b91506127928361284f565b9250826127a2576127a1612958565b5b828204905092915050565b60006127b88261284f565b91506127c38361284f565b9250817fffffffffffffffffffffffffffffffffffffffffffffffffffffffffffffffff04831182151516156127fc576127fb612929565b5b828202905092915050565b60006128128261282f565b9050919050565b60008115159050919050565b6000819050919050565b600073ffffffffffffffffffffffffffffffffffffffff82169050919050565b6000819050919050565b600060ff82169050919050565b600069ffffffffffffffffffff82169050919050565b60006128878261288e565b9050919050565b60006128998261282f565b9050919050565b60006128ab826128b2565b9050919050565b60006128bd8261282f565b9050919050565b60005b838110156128e25780820151818401526020810190506128c7565b838111156128f1576000848401525b50505050565b6000600282049050600182168061290f57607f821691505b6020821081141561292357612922612987565b5b50919050565b7f4e487b7100000000000000000000000000000000000000000000000000000000600052601160045260246000fd5b7f4e487b7100000000000000000000000000000000000000000000000000000000600052601260045260246000fd5b7f4e487b7100000000000000000000000000000000000000000000000000000000600052602260045260246000fd5b6000601f19601f8301169050919050565b6129d081612807565b81146129db57600080fd5b50565b6129e781612819565b81146129f257600080fd5b50565b6129fe81612825565b8114612a0957600080fd5b50565b612a158161284f565b8114612a2057600080fd5b50565b612a2c81612866565b8114612a3757600080fd5b5056fea26469706673582212208c988d0eba10bd656bc9068a4222219b5eb52cb74f0dc58e538998ad4bc37d6264736f6c63430008000033",
  "linkReferences": {},
  "deployedLinkReferences": {}
}