{
  "_format": "hh-sol-artifact-1",
  "contractName": "Nuggets",
  "sourceName": "contracts/Nuggets.sol",
  "abi": [
    {
      "inputs": [
        {
          "internalType": "address",
          "name": "_stETHAddress",
          "type": "address"
        },
        {
          "internalType": "address",
          "name": "_stEthPriceFeedAddress",
          "type": "address"
        },
        {
          "internalType": "address",
          "name": "_goldPriceFeedAddress",
          "type": "address"
        }
      ],
      "stateMutability": "nonpayable",
      "type": "constructor"
    },
    {
      "anonymous": false,
      "inputs": [
        {
          "indexed": true,
          "internalType": "address",
          "name": "owner",
          "type": "address"
        },
        {
          "indexed": true,
          "internalType": "address",
          "name": "spender",
          "type": "address"
        },
        {
          "indexed": false,
          "internalType": "uint256",
          "name": "value",
          "type": "uint256"
        }
      ],
      "name": "Approval",
      "type": "event"
    },
    {
      "anonymous": false,
      "inputs": [
        {
          "indexed": true,
          "internalType": "address",
          "name": "previousOwner",
          "type": "address"
        },
        {
          "indexed": true,
          "internalType": "address",
          "name": "newOwner",
          "type": "address"
        }
      ],
      "name": "OwnershipTransferred",
      "type": "event"
    },
    {
      "anonymous": false,
      "inputs": [
        {
          "indexed": false,
          "internalType": "uint256",
          "name": "priceInUsd",
          "type": "uint256"
        }
      ],
      "name": "StethPriceUpdated",
      "type": "event"
    },
    {
      "anonymous": false,
      "inputs": [
        {
          "indexed": true,
          "internalType": "address",
          "name": "from",
          "type": "address"
        },
        {
          "indexed": true,
          "internalType": "address",
          "name": "to",
          "type": "address"
        },
        {
          "indexed": false,
          "internalType": "uint256",
          "name": "value",
          "type": "uint256"
        }
      ],
      "name": "Transfer",
      "type": "event"
    },
    {
      "inputs": [],
      "name": "COLLATERALISATION_RATIO",
      "outputs": [
        {
          "internalType": "uint256",
          "name": "",
          "type": "uint256"
        }
      ],
      "stateMutability": "view",
      "type": "function"
    },
    {
      "inputs": [],
      "name": "LIQUIDATION_FEE",
      "outputs": [
        {
          "internalType": "uint256",
          "name": "",
          "type": "uint256"
        }
      ],
      "stateMutability": "view",
      "type": "function"
    },
    {
      "inputs": [],
      "name": "LIQUIDATION_RATIO",
      "outputs": [
        {
          "internalType": "uint256",
          "name": "",
          "type": "uint256"
        }
      ],
      "stateMutability": "view",
      "type": "function"
    },
    {
      "inputs": [
        {
          "internalType": "address",
          "name": "owner",
          "type": "address"
        },
        {
          "internalType": "address",
          "name": "spender",
          "type": "address"
        }
      ],
      "name": "allowance",
      "outputs": [
        {
          "internalType": "uint256",
          "name": "",
          "type": "uint256"
        }
      ],
      "stateMutability": "view",
      "type": "function"
    },
    {
      "inputs": [
        {
          "internalType": "address",
          "name": "spender",
          "type": "address"
        },
        {
          "internalType": "uint256",
          "name": "amount",
          "type": "uint256"
        }
      ],
      "name": "approve",
      "outputs": [
        {
          "internalType": "bool",
          "name": "",
          "type": "bool"
        }
      ],
      "stateMutability": "nonpayable",
      "type": "function"
    },
    {
      "inputs": [
        {
          "internalType": "address",
          "name": "account",
          "type": "address"
        }
      ],
      "name": "balanceOf",
      "outputs": [
        {
          "internalType": "uint256",
          "name": "",
          "type": "uint256"
        }
      ],
      "stateMutability": "view",
      "type": "function"
    },
    {
      "inputs": [
        {
          "internalType": "uint256",
          "name": "stEthAmount",
          "type": "uint256"
        }
      ],
      "name": "borrow",
      "outputs": [],
      "stateMutability": "nonpayable",
      "type": "function"
    },
    {
      "inputs": [
        {
          "internalType": "uint256",
          "name": "stEthAmount",
          "type": "uint256"
        },
        {
          "internalType": "uint256",
          "name": "stEthPriceInUsd",
          "type": "uint256"
        },
        {
          "internalType": "uint256",
          "name": "goldPriceInUsd",
          "type": "uint256"
        }
      ],
      "name": "calculateNuggetsAmount",
      "outputs": [
        {
          "internalType": "uint256",
          "name": "",
          "type": "uint256"
        }
      ],
      "stateMutability": "pure",
      "type": "function"
    },
    {
      "inputs": [
        {
          "internalType": "address",
          "name": "",
          "type": "address"
        }
      ],
      "name": "collateral",
      "outputs": [
        {
          "internalType": "uint256",
          "name": "",
          "type": "uint256"
        }
      ],
      "stateMutability": "view",
      "type": "function"
    },
    {
      "inputs": [],
      "name": "decimals",
      "outputs": [
        {
          "internalType": "uint8",
          "name": "",
          "type": "uint8"
        }
      ],
      "stateMutability": "view",
      "type": "function"
    },
    {
      "inputs": [
        {
          "internalType": "address",
          "name": "spender",
          "type": "address"
        },
        {
          "internalType": "uint256",
          "name": "subtractedValue",
          "type": "uint256"
        }
      ],
      "name": "decreaseAllowance",
      "outputs": [
        {
          "internalType": "bool",
          "name": "",
          "type": "bool"
        }
      ],
      "stateMutability": "nonpayable",
      "type": "function"
    },
    {
      "inputs": [],
      "name": "getGoldPriceInUsd",
      "outputs": [
        {
          "internalType": "uint256",
          "name": "",
          "type": "uint256"
        }
      ],
      "stateMutability": "view",
      "type": "function"
    },
    {
      "inputs": [
        {
          "internalType": "address",
          "name": "account",
          "type": "address"
        }
      ],
      "name": "getStethBalance",
      "outputs": [
        {
          "internalType": "uint256",
          "name": "",
          "type": "uint256"
        }
      ],
      "stateMutability": "view",
      "type": "function"
    },
    {
      "inputs": [],
      "name": "getStethPriceInUsd",
      "outputs": [
        {
          "internalType": "uint256",
          "name": "",
          "type": "uint256"
        }
      ],
      "stateMutability": "view",
      "type": "function"
    },
    {
      "inputs": [],
      "name": "goldPriceFeed",
      "outputs": [
        {
          "internalType": "contract AggregatorV3Interface",
          "name": "",
          "type": "address"
        }
      ],
      "stateMutability": "view",
      "type": "function"
    },
    {
      "inputs": [
        {
          "internalType": "address",
          "name": "spender",
          "type": "address"
        },
        {
          "internalType": "uint256",
          "name": "addedValue",
          "type": "uint256"
        }
      ],
      "name": "increaseAllowance",
      "outputs": [
        {
          "internalType": "bool",
          "name": "",
          "type": "bool"
        }
      ],
      "stateMutability": "nonpayable",
      "type": "function"
    },
    {
      "inputs": [
        {
          "internalType": "address",
          "name": "account",
          "type": "address"
        }
      ],
      "name": "liquidate",
      "outputs": [],
      "stateMutability": "nonpayable",
      "type": "function"
    },
    {
      "inputs": [],
      "name": "name",
      "outputs": [
        {
          "internalType": "string",
          "name": "",
          "type": "string"
        }
      ],
      "stateMutability": "view",
      "type": "function"
    },
    {
      "inputs": [],
      "name": "owner",
      "outputs": [
        {
          "internalType": "address",
          "name": "",
          "type": "address"
        }
      ],
      "stateMutability": "view",
      "type": "function"
    },
    {
      "inputs": [],
      "name": "renounceOwnership",
      "outputs": [],
      "stateMutability": "nonpayable",
      "type": "function"
    },
    {
      "inputs": [
        {
          "internalType": "uint256",
          "name": "nuggetsAmount",
          "type": "uint256"
        }
      ],
      "name": "repay",
      "outputs": [],
      "stateMutability": "nonpayable",
      "type": "function"
    },
    {
      "inputs": [],
      "name": "stETH",
      "outputs": [
        {
          "internalType": "contract IERC20",
          "name": "",
          "type": "address"
        }
      ],
      "stateMutability": "view",
      "type": "function"
    },
    {
      "inputs": [],
      "name": "stEthPriceFeed",
      "outputs": [
        {
          "internalType": "contract AggregatorV3Interface",
          "name": "",
          "type": "address"
        }
      ],
      "stateMutability": "view",
      "type": "function"
    },
    {
      "inputs": [],
      "name": "symbol",
      "outputs": [
        {
          "internalType": "string",
          "name": "",
          "type": "string"
        }
      ],
      "stateMutability": "view",
      "type": "function"
    },
    {
      "inputs": [],
      "name": "totalSupply",
      "outputs": [
        {
          "internalType": "uint256",
          "name": "",
          "type": "uint256"
        }
      ],
      "stateMutability": "view",
      "type": "function"
    },
    {
      "inputs": [
        {
          "internalType": "address",
          "name": "to",
          "type": "address"
        },
        {
          "internalType": "uint256",
          "name": "amount",
          "type": "uint256"
        }
      ],
      "name": "transfer",
      "outputs": [
        {
          "internalType": "bool",
          "name": "",
          "type": "bool"
        }
      ],
      "stateMutability": "nonpayable",
      "type": "function"
    },
    {
      "inputs": [
        {
          "internalType": "address",
          "name": "from",
          "type": "address"
        },
        {
          "internalType": "address",
          "name": "to",
          "type": "address"
        },
        {
          "internalType": "uint256",
          "name": "amount",
          "type": "uint256"
        }
      ],
      "name": "transferFrom",
      "outputs": [
        {
          "internalType": "bool",
          "name": "",
          "type": "bool"
        }
      ],
      "stateMutability": "nonpayable",
      "type": "function"
    },
    {
      "inputs": [
        {
          "internalType": "address",
          "name": "newOwner",
          "type": "address"
        }
      ],
      "name": "transferOwnership",
      "outputs": [],
      "stateMutability": "nonpayable",
      "type": "function"
    }
  ],
  "bytecode": "0x60806040523480156200001157600080fd5b5060405162002eff38038062002eff833981810160405281019062000037919062000358565b6040518060400160405280600781526020017f4e756767657473000000000000000000000000000000000000000000000000008152506040518060400160405280600381526020017f4e475400000000000000000000000000000000000000000000000000000000008152508160039080519060200190620000bb92919062000291565b508060049080519060200190620000d492919062000291565b505050620000f7620000eb620001c360201b60201c565b620001cb60201b60201c565b82600660006101000a81548173ffffffffffffffffffffffffffffffffffffffff021916908373ffffffffffffffffffffffffffffffffffffffff16021790555081600760006101000a81548173ffffffffffffffffffffffffffffffffffffffff021916908373ffffffffffffffffffffffffffffffffffffffff16021790555080600860006101000a81548173ffffffffffffffffffffffffffffffffffffffff021916908373ffffffffffffffffffffffffffffffffffffffff16021790555050505062000461565b600033905090565b6000600560009054906101000a900473ffffffffffffffffffffffffffffffffffffffff16905081600560006101000a81548173ffffffffffffffffffffffffffffffffffffffff021916908373ffffffffffffffffffffffffffffffffffffffff1602179055508173ffffffffffffffffffffffffffffffffffffffff168173ffffffffffffffffffffffffffffffffffffffff167f8be0079c531659141344cd1fd0a4f28419497f9722a3daafe3b4186f6b6457e060405160405180910390a35050565b8280546200029f90620003e2565b90600052602060002090601f016020900481019282620002c357600085556200030f565b82601f10620002de57805160ff19168380011785556200030f565b828001600101855582156200030f579182015b828111156200030e578251825591602001919060010190620002f1565b5b5090506200031e919062000322565b5090565b5b808211156200033d57600081600090555060010162000323565b5090565b600081519050620003528162000447565b92915050565b6000806000606084860312156200036e57600080fd5b60006200037e8682870162000341565b9350506020620003918682870162000341565b9250506040620003a48682870162000341565b9150509250925092565b6000620003bb82620003c2565b9050919050565b600073ffffffffffffffffffffffffffffffffffffffff82169050919050565b60006002820490506001821680620003fb57607f821691505b6020821081141562000412576200041162000418565b5b50919050565b7f4e487b7100000000000000000000000000000000000000000000000000000000600052602260045260246000fd5b6200045281620003ae565b81146200045e57600080fd5b50565b612a8e80620004716000396000f3fe608060405234801561001057600080fd5b50600436106101c45760003560e01c80638da5cb5b116100f9578063c1fe3e4811610097578063c5ebeaec11610071578063c5ebeaec14610523578063d51ec5681461053f578063dd62ed3e1461055d578063f2fde38b1461058d576101c4565b8063c1fe3e48146104c9578063c422f9d0146104e7578063c4323fea14610505576101c4565b8063a5fdc5de116100d3578063a5fdc5de1461042d578063a9059cbb1461045d578063b18273301461048d578063b915989f146104ab576101c4565b80638da5cb5b146103c157806395d89b41146103df578063a457c2d7146103fd576101c4565b8063313ce567116101665780633950935111610140578063395093511461032757806343ce854a1461035757806370a0823114610387578063715018a6146103b7576101c4565b8063313ce567146102cf5780633190480e146102ed578063371fd8e61461030b576101c4565b806318160ddd116101a257806318160ddd1461024757806323b872dd146102655780632c095e03146102955780632f865568146102b3576101c4565b806306d4a201146101c957806306fdde03146101f9578063095ea7b314610217575b600080fd5b6101e360048036038101906101de9190611d8f565b6105a9565b6040516101f091906126f2565b60405180910390f35b6102016105ee565b60405161020e91906124f0565b60405180910390f35b610231600480360381019061022c9190611cd8565b610680565b60405161023e919061249f565b60405180910390f35b61024f6106a3565b60405161025c91906126f2565b60405180910390f35b61027f600480360381019061027a9190611c89565b6106ad565b60405161028c919061249f565b60405180910390f35b61029d6106dc565b6040516102aa91906126f2565b60405180910390f35b6102cd60048036038101906102c89190611c24565b6106e1565b005b6102d761090f565b6040516102e4919061270d565b60405180910390f35b6102f5610918565b60405161030291906124ba565b60405180910390f35b61032560048036038101906103209190611d3d565b61093e565b005b610341600480360381019061033c9190611cd8565b610b01565b60405161034e919061249f565b60405180910390f35b610371600480360381019061036c9190611c24565b610b38565b60405161037e91906126f2565b60405180910390f35b6103a1600480360381019061039c9190611c24565b610bec565b6040516103ae91906126f2565b60405180910390f35b6103bf610c34565b005b6103c9610c48565b6040516103d69190612424565b60405180910390f35b6103e7610c72565b6040516103f491906124f0565b60405180910390f35b61041760048036038101906104129190611cd8565b610d04565b604051610424919061249f565b60405180910390f35b61044760048036038101906104429190611c24565b610d7b565b60405161045491906126f2565b60405180910390f35b61047760048036038101906104729190611cd8565b610d93565b604051610484919061249f565b60405180910390f35b610495610db6565b6040516104a291906126f2565b60405180910390f35b6104b3610dbb565b6040516104c091906126f2565b60405180910390f35b6104d1610ebe565b6040516104de91906124d5565b60405180910390f35b6104ef610ee4565b6040516104fc91906124ba565b60405180910390f35b61050d610f0a565b60405161051a91906126f2565b60405180910390f35b61053d60048036038101906105389190611d3d565b610f0f565b005b61054761104e565b60405161055491906126f2565b60405180910390f35b61057760048036038101906105729190611c4d565b611151565b60405161058491906126f2565b60405180910390f35b6105a760048036038101906105a29190611c24565b6111d8565b005b6000808284866105b991906127cb565b6105c3919061279a565b9050600060c86064836105d691906127cb565b6105e0919061279a565b905080925050509392505050565b6060600380546105fd90612915565b80601f016020809104026020016040519081016040528092919081815260200182805461062990612915565b80156106765780601f1061064b57610100808354040283529160200191610676565b820191906000526020600020905b81548152906001019060200180831161065957829003601f168201915b5050505050905090565b60008061068b61125c565b9050610698818585611264565b600191505092915050565b6000600254905090565b6000806106b861125c565b90506106c585828561142f565b6106d08585856114bb565b60019150509392505050565b60c881565b60006106eb61104e565b905060006106f883610bec565b905060968161070791906127cb565b606483600960008773ffffffffffffffffffffffffffffffffffffffff1673ffffffffffffffffffffffffffffffffffffffff1681526020019081526020016000205461075491906127cb565b61075e91906127cb565b1061079e576040517f08c379a0000000000000000000000000000000000000000000000000000000008152600401610795906125d2565b60405180910390fd5b600060646005836107af91906127cb565b6107b9919061279a565b90506000600960008673ffffffffffffffffffffffffffffffffffffffff1673ffffffffffffffffffffffffffffffffffffffff168152602001908152602001600020549050600660009054906101000a900473ffffffffffffffffffffffffffffffffffffffff1673ffffffffffffffffffffffffffffffffffffffff1663a9059cbb33836040518363ffffffff1660e01b815260040161085c929190612476565b602060405180830381600087803b15801561087657600080fd5b505af115801561088a573d6000803e3d6000fd5b505050506040513d601f19601f820116820180604052508101906108ae9190611d14565b506000600960008773ffffffffffffffffffffffffffffffffffffffff1673ffffffffffffffffffffffffffffffffffffffff168152602001908152602001600020819055506108fe8584611733565b6109083383611901565b5050505050565b60006012905090565b600760009054906101000a900473ffffffffffffffffffffffffffffffffffffffff1681565b6000600960003373ffffffffffffffffffffffffffffffffffffffff1673ffffffffffffffffffffffffffffffffffffffff16815260200190815260200160002054116109c0576040517f08c379a00000000000000000000000000000000000000000000000000000000081526004016109b7906125f2565b60405180910390fd5b600660009054906101000a900473ffffffffffffffffffffffffffffffffffffffff1673ffffffffffffffffffffffffffffffffffffffff1663a9059cbb33600960003373ffffffffffffffffffffffffffffffffffffffff1673ffffffffffffffffffffffffffffffffffffffff168152602001908152602001600020546040518363ffffffff1660e01b8152600401610a5c929190612476565b602060405180830381600087803b158015610a7657600080fd5b505af1158015610a8a573d6000803e3d6000fd5b505050506040513d601f19601f82011682018060405250810190610aae9190611d14565b506000600960003373ffffffffffffffffffffffffffffffffffffffff1673ffffffffffffffffffffffffffffffffffffffff16815260200190815260200160002081905550610afe3382611733565b50565b600080610b0c61125c565b9050610b2d818585610b1e8589611151565b610b289190612744565b611264565b600191505092915050565b6000600660009054906101000a900473ffffffffffffffffffffffffffffffffffffffff1673ffffffffffffffffffffffffffffffffffffffff166370a08231836040518263ffffffff1660e01b8152600401610b959190612424565b60206040518083038186803b158015610bad57600080fd5b505afa158015610bc1573d6000803e3d6000fd5b505050506040513d601f19601f82011682018060405250810190610be59190611d66565b9050919050565b60008060008373ffffffffffffffffffffffffffffffffffffffff1673ffffffffffffffffffffffffffffffffffffffff168152602001908152602001600020549050919050565b610c3c611a58565b610c466000611ad6565b565b6000600560009054906101000a900473ffffffffffffffffffffffffffffffffffffffff16905090565b606060048054610c8190612915565b80601f0160208091040260200160405190810160405280929190818152602001828054610cad90612915565b8015610cfa5780601f10610ccf57610100808354040283529160200191610cfa565b820191906000526020600020905b815481529060010190602001808311610cdd57829003601f168201915b5050505050905090565b600080610d0f61125c565b90506000610d1d8286611151565b905083811015610d62576040517f08c379a0000000000000000000000000000000000000000000000000000000008152600401610d59906126b2565b60405180910390fd5b610d6f8286868403611264565b60019250505092915050565b60096020528060005260406000206000915090505481565b600080610d9e61125c565b9050610dab8185856114bb565b600191505092915050565b600581565b600080600860009054906101000a900473ffffffffffffffffffffffffffffffffffffffff1673ffffffffffffffffffffffffffffffffffffffff1663feaf968c6040518163ffffffff1660e01b815260040160a06040518083038186803b158015610e2657600080fd5b505afa158015610e3a573d6000803e3d6000fd5b505050506040513d601f19601f82011682018060405250810190610e5e9190611dde565b50505091505060008113610ea7576040517f08c379a0000000000000000000000000000000000000000000000000000000008152600401610e9e90612692565b60405180910390fd5b6402540be40081610eb891906127cb565b91505090565b600660009054906101000a900473ffffffffffffffffffffffffffffffffffffffff1681565b600860009054906101000a900473ffffffffffffffffffffffffffffffffffffffff1681565b609681565b6000610f1961104e565b90506000610f25610dbb565b90506000610f348484846105a9565b9050600660009054906101000a900473ffffffffffffffffffffffffffffffffffffffff1673ffffffffffffffffffffffffffffffffffffffff166323b872dd3330876040518463ffffffff1660e01b8152600401610f959392919061243f565b602060405180830381600087803b158015610faf57600080fd5b505af1158015610fc3573d6000803e3d6000fd5b505050506040513d601f19601f82011682018060405250810190610fe79190611d14565b5083600960003373ffffffffffffffffffffffffffffffffffffffff1673ffffffffffffffffffffffffffffffffffffffff16815260200190815260200160002060008282546110379190612744565b925050819055506110483382611901565b50505050565b600080600760009054906101000a900473ffffffffffffffffffffffffffffffffffffffff1673ffffffffffffffffffffffffffffffffffffffff1663feaf968c6040518163ffffffff1660e01b815260040160a06040518083038186803b1580156110b957600080fd5b505afa1580156110cd573d6000803e3d6000fd5b505050506040513d601f19601f820116820180604052508101906110f19190611dde565b5050509150506000811361113a576040517f08c379a000000000000000000000000000000000000000000000000000000000815260040161113190612692565b60405180910390fd5b6402540be4008161114b91906127cb565b91505090565b6000600160008473ffffffffffffffffffffffffffffffffffffffff1673ffffffffffffffffffffffffffffffffffffffff16815260200190815260200160002060008373ffffffffffffffffffffffffffffffffffffffff1673ffffffffffffffffffffffffffffffffffffffff16815260200190815260200160002054905092915050565b6111e0611a58565b600073ffffffffffffffffffffffffffffffffffffffff168173ffffffffffffffffffffffffffffffffffffffff161415611250576040517f08c379a000000000000000000000000000000000000000000000000000000000815260040161124790612552565b60405180910390fd5b61125981611ad6565b50565b600033905090565b600073ffffffffffffffffffffffffffffffffffffffff168373ffffffffffffffffffffffffffffffffffffffff1614156112d4576040517f08c379a00000000000000000000000000000000000000000000000000000000081526004016112cb90612672565b60405180910390fd5b600073ffffffffffffffffffffffffffffffffffffffff168273ffffffffffffffffffffffffffffffffffffffff161415611344576040517f08c379a000000000000000000000000000000000000000000000000000000000815260040161133b90612572565b60405180910390fd5b80600160008573ffffffffffffffffffffffffffffffffffffffff1673ffffffffffffffffffffffffffffffffffffffff16815260200190815260200160002060008473ffffffffffffffffffffffffffffffffffffffff1673ffffffffffffffffffffffffffffffffffffffff168152602001908152602001600020819055508173ffffffffffffffffffffffffffffffffffffffff168373ffffffffffffffffffffffffffffffffffffffff167f8c5be1e5ebec7d5bd14f71427d1e84f3dd0314c0f7b2291e5b200ac8c7c3b9258360405161142291906126f2565b60405180910390a3505050565b600061143b8484611151565b90507fffffffffffffffffffffffffffffffffffffffffffffffffffffffffffffffff81146114b557818110156114a7576040517f08c379a000000000000000000000000000000000000000000000000000000000815260040161149e90612592565b60405180910390fd5b6114b48484848403611264565b5b50505050565b600073ffffffffffffffffffffffffffffffffffffffff168373ffffffffffffffffffffffffffffffffffffffff16141561152b576040517f08c379a000000000000000000000000000000000000000000000000000000000815260040161152290612652565b60405180910390fd5b600073ffffffffffffffffffffffffffffffffffffffff168273ffffffffffffffffffffffffffffffffffffffff16141561159b576040517f08c379a000000000000000000000000000000000000000000000000000000000815260040161159290612512565b60405180910390fd5b6115a6838383611b9c565b60008060008573ffffffffffffffffffffffffffffffffffffffff1673ffffffffffffffffffffffffffffffffffffffff1681526020019081526020016000205490508181101561162c576040517f08c379a0000000000000000000000000000000000000000000000000000000008152600401611623906125b2565b60405180910390fd5b8181036000808673ffffffffffffffffffffffffffffffffffffffff1673ffffffffffffffffffffffffffffffffffffffff16815260200190815260200160002081905550816000808573ffffffffffffffffffffffffffffffffffffffff1673ffffffffffffffffffffffffffffffffffffffff168152602001908152602001600020600082825401925050819055508273ffffffffffffffffffffffffffffffffffffffff168473ffffffffffffffffffffffffffffffffffffffff167fddf252ad1be2c89b69c2b068fc378daa952ba7f163c4a11628f55a4df523b3ef8460405161171a91906126f2565b60405180910390a361172d848484611ba1565b50505050565b600073ffffffffffffffffffffffffffffffffffffffff168273ffffffffffffffffffffffffffffffffffffffff1614156117a3576040517f08c379a000000000000000000000000000000000000000000000000000000000815260040161179a90612632565b60405180910390fd5b6117af82600083611b9c565b60008060008473ffffffffffffffffffffffffffffffffffffffff1673ffffffffffffffffffffffffffffffffffffffff16815260200190815260200160002054905081811015611835576040517f08c379a000000000000000000000000000000000000000000000000000000000815260040161182c90612532565b60405180910390fd5b8181036000808573ffffffffffffffffffffffffffffffffffffffff1673ffffffffffffffffffffffffffffffffffffffff1681526020019081526020016000208190555081600260008282540392505081905550600073ffffffffffffffffffffffffffffffffffffffff168373ffffffffffffffffffffffffffffffffffffffff167fddf252ad1be2c89b69c2b068fc378daa952ba7f163c4a11628f55a4df523b3ef846040516118e891906126f2565b60405180910390a36118fc83600084611ba1565b505050565b600073ffffffffffffffffffffffffffffffffffffffff168273ffffffffffffffffffffffffffffffffffffffff161415611971576040517f08c379a0000000000000000000000000000000000000000000000000000000008152600401611968906126d2565b60405180910390fd5b61197d60008383611b9c565b806002600082825461198f9190612744565b92505081905550806000808473ffffffffffffffffffffffffffffffffffffffff1673ffffffffffffffffffffffffffffffffffffffff168152602001908152602001600020600082825401925050819055508173ffffffffffffffffffffffffffffffffffffffff16600073ffffffffffffffffffffffffffffffffffffffff167fddf252ad1be2c89b69c2b068fc378daa952ba7f163c4a11628f55a4df523b3ef83604051611a4091906126f2565b60405180910390a3611a5460008383611ba1565b5050565b611a6061125c565b73ffffffffffffffffffffffffffffffffffffffff16611a7e610c48565b73ffffffffffffffffffffffffffffffffffffffff1614611ad4576040517f08c379a0000000000000000000000000000000000000000000000000000000008152600401611acb90612612565b60405180910390fd5b565b6000600560009054906101000a900473ffffffffffffffffffffffffffffffffffffffff16905081600560006101000a81548173ffffffffffffffffffffffffffffffffffffffff021916908373ffffffffffffffffffffffffffffffffffffffff1602179055508173ffffffffffffffffffffffffffffffffffffffff168173ffffffffffffffffffffffffffffffffffffffff167f8be0079c531659141344cd1fd0a4f28419497f9722a3daafe3b4186f6b6457e060405160405180910390a35050565b505050565b505050565b600081359050611bb5816129e5565b92915050565b600081519050611bca816129fc565b92915050565b600081519050611bdf81612a13565b92915050565b600081359050611bf481612a2a565b92915050565b600081519050611c0981612a2a565b92915050565b600081519050611c1e81612a41565b92915050565b600060208284031215611c3657600080fd5b6000611c4484828501611ba6565b91505092915050565b60008060408385031215611c6057600080fd5b6000611c6e85828601611ba6565b9250506020611c7f85828601611ba6565b9150509250929050565b600080600060608486031215611c9e57600080fd5b6000611cac86828701611ba6565b9350506020611cbd86828701611ba6565b9250506040611cce86828701611be5565b9150509250925092565b60008060408385031215611ceb57600080fd5b6000611cf985828601611ba6565b9250506020611d0a85828601611be5565b9150509250929050565b600060208284031215611d2657600080fd5b6000611d3484828501611bbb565b91505092915050565b600060208284031215611d4f57600080fd5b6000611d5d84828501611be5565b91505092915050565b600060208284031215611d7857600080fd5b6000611d8684828501611bfa565b91505092915050565b600080600060608486031215611da457600080fd5b6000611db286828701611be5565b9350506020611dc386828701611be5565b9250506040611dd486828701611be5565b9150509250925092565b600080600080600060a08688031215611df657600080fd5b6000611e0488828901611c0f565b9550506020611e1588828901611bd0565b9450506040611e2688828901611bfa565b9350506060611e3788828901611bfa565b9250506080611e4888828901611c0f565b9150509295509295909350565b611e5e81612825565b82525050565b611e6d81612837565b82525050565b611e7c8161289a565b82525050565b611e8b816128be565b82525050565b6000611e9c82612728565b611ea68185612733565b9350611eb68185602086016128e2565b611ebf816129d4565b840191505092915050565b6000611ed7602383612733565b91507f45524332303a207472616e7366657220746f20746865207a65726f206164647260008301527f65737300000000000000000000000000000000000000000000000000000000006020830152604082019050919050565b6000611f3d602283612733565b91507f45524332303a206275726e20616d6f756e7420657863656564732062616c616e60008301527f63650000000000000000000000000000000000000000000000000000000000006020830152604082019050919050565b6000611fa3602683612733565b91507f4f776e61626c653a206e6577206f776e657220697320746865207a65726f206160008301527f64647265737300000000000000000000000000000000000000000000000000006020830152604082019050919050565b6000612009602283612733565b91507f45524332303a20617070726f766520746f20746865207a65726f20616464726560008301527f73730000000000000000000000000000000000000000000000000000000000006020830152604082019050919050565b600061206f601d83612733565b91507f45524332303a20696e73756666696369656e7420616c6c6f77616e63650000006000830152602082019050919050565b60006120af602683612733565b91507f45524332303a207472616e7366657220616d6f756e742065786365656473206260008301527f616c616e636500000000000000000000000000000000000000000000000000006020830152604082019050919050565b6000612115603783612733565b91507f43616e6e6f74206c697175696461746520612073756666696369656e746c792060008301527f636f6c6c61746572616c6973656420706f736974696f6e0000000000000000006020830152604082019050919050565b600061217b601683612733565b91507f4e6f20636f6c6c61746572616c20746f207265706179000000000000000000006000830152602082019050919050565b60006121bb602083612733565b91507f4f776e61626c653a2063616c6c6572206973206e6f7420746865206f776e65726000830152602082019050919050565b60006121fb602183612733565b91507f45524332303a206275726e2066726f6d20746865207a65726f2061646472657360008301527f73000000000000000000000000000000000000000000000000000000000000006020830152604082019050919050565b6000612261602583612733565b91507f45524332303a207472616e736665722066726f6d20746865207a65726f20616460008301527f64726573730000000000000000000000000000000000000000000000000000006020830152604082019050919050565b60006122c7602483612733565b91507f45524332303a20617070726f76652066726f6d20746865207a65726f2061646460008301527f72657373000000000000000000000000000000000000000000000000000000006020830152604082019050919050565b600061232d601283612733565b91507f496e76616c6964207072696365206665656400000000000000000000000000006000830152602082019050919050565b600061236d602583612733565b91507f45524332303a2064656372656173656420616c6c6f77616e63652062656c6f7760008301527f207a65726f0000000000000000000000000000000000000000000000000000006020830152604082019050919050565b60006123d3601f83612733565b91507f45524332303a206d696e7420746f20746865207a65726f2061646472657373006000830152602082019050919050565b61240f8161286d565b82525050565b61241e81612877565b82525050565b60006020820190506124396000830184611e55565b92915050565b60006060820190506124546000830186611e55565b6124616020830185611e55565b61246e6040830184612406565b949350505050565b600060408201905061248b6000830185611e55565b6124986020830184612406565b9392505050565b60006020820190506124b46000830184611e64565b92915050565b60006020820190506124cf6000830184611e73565b92915050565b60006020820190506124ea6000830184611e82565b92915050565b6000602082019050818103600083015261250a8184611e91565b905092915050565b6000602082019050818103600083015261252b81611eca565b9050919050565b6000602082019050818103600083015261254b81611f30565b9050919050565b6000602082019050818103600083015261256b81611f96565b9050919050565b6000602082019050818103600083015261258b81611ffc565b9050919050565b600060208201905081810360008301526125ab81612062565b9050919050565b600060208201905081810360008301526125cb816120a2565b9050919050565b600060208201905081810360008301526125eb81612108565b9050919050565b6000602082019050818103600083015261260b8161216e565b9050919050565b6000602082019050818103600083015261262b816121ae565b9050919050565b6000602082019050818103600083015261264b816121ee565b9050919050565b6000602082019050818103600083015261266b81612254565b9050919050565b6000602082019050818103600083015261268b816122ba565b9050919050565b600060208201905081810360008301526126ab81612320565b9050919050565b600060208201905081810360008301526126cb81612360565b9050919050565b600060208201905081810360008301526126eb816123c6565b9050919050565b60006020820190506127076000830184612406565b92915050565b60006020820190506127226000830184612415565b92915050565b600081519050919050565b600082825260208201905092915050565b600061274f8261286d565b915061275a8361286d565b9250827fffffffffffffffffffffffffffffffffffffffffffffffffffffffffffffffff0382111561278f5761278e612947565b5b828201905092915050565b60006127a58261286d565b91506127b08361286d565b9250826127c0576127bf612976565b5b828204905092915050565b60006127d68261286d565b91506127e18361286d565b9250817fffffffffffffffffffffffffffffffffffffffffffffffffffffffffffffffff048311821515161561281a57612819612947565b5b828202905092915050565b60006128308261284d565b9050919050565b60008115159050919050565b6000819050919050565b600073ffffffffffffffffffffffffffffffffffffffff82169050919050565b6000819050919050565b600060ff82169050919050565b600069ffffffffffffffffffff82169050919050565b60006128a5826128ac565b9050919050565b60006128b78261284d565b9050919050565b60006128c9826128d0565b9050919050565b60006128db8261284d565b9050919050565b60005b838110156129005780820151818401526020810190506128e5565b8381111561290f576000848401525b50505050565b6000600282049050600182168061292d57607f821691505b60208210811415612941576129406129a5565b5b50919050565b7f4e487b7100000000000000000000000000000000000000000000000000000000600052601160045260246000fd5b7f4e487b7100000000000000000000000000000000000000000000000000000000600052601260045260246000fd5b7f4e487b7100000000000000000000000000000000000000000000000000000000600052602260045260246000fd5b6000601f19601f8301169050919050565b6129ee81612825565b81146129f957600080fd5b50565b612a0581612837565b8114612a1057600080fd5b50565b612a1c81612843565b8114612a2757600080fd5b50565b612a338161286d565b8114612a3e57600080fd5b50565b612a4a81612884565b8114612a5557600080fd5b5056fea26469706673582212206b0a5dda33450b56439de51728c17eb9aed166f0c8ef86fd6763b074e6721bd664736f6c63430008000033",
  "linkReferences": {},
  "deployedLinkReferences": {}
}