{
  "_format": "hh-sol-artifact-1",
  "contractName": "Nuggets",
  "sourceName": "contracts/Nuggets.sol",
  "abi": [
    {
      "inputs": [
        {
          "internalType": "address",
          "name": "_stETHAddress",
          "type": "address"
        },
        {
          "internalType": "address",
          "name": "_stEthPriceFeedAddress",
          "type": "address"
        },
        {
          "internalType": "address",
          "name": "_goldPriceFeedAddress",
          "type": "address"
        }
      ],
      "stateMutability": "nonpayable",
      "type": "constructor"
    },
    {
      "anonymous": false,
      "inputs": [
        {
          "indexed": true,
          "internalType": "address",
          "name": "owner",
          "type": "address"
        },
        {
          "indexed": true,
          "internalType": "address",
          "name": "spender",
          "type": "address"
        },
        {
          "indexed": false,
          "internalType": "uint256",
          "name": "value",
          "type": "uint256"
        }
      ],
      "name": "Approval",
      "type": "event"
    },
    {
      "anonymous": false,
      "inputs": [
        {
          "indexed": true,
          "internalType": "address",
          "name": "previousOwner",
          "type": "address"
        },
        {
          "indexed": true,
          "internalType": "address",
          "name": "newOwner",
          "type": "address"
        }
      ],
      "name": "OwnershipTransferred",
      "type": "event"
    },
    {
      "anonymous": false,
      "inputs": [
        {
          "indexed": false,
          "internalType": "uint256",
          "name": "priceInUsd",
          "type": "uint256"
        }
      ],
      "name": "StethPriceUpdated",
      "type": "event"
    },
    {
      "anonymous": false,
      "inputs": [
        {
          "indexed": true,
          "internalType": "address",
          "name": "from",
          "type": "address"
        },
        {
          "indexed": true,
          "internalType": "address",
          "name": "to",
          "type": "address"
        },
        {
          "indexed": false,
          "internalType": "uint256",
          "name": "value",
          "type": "uint256"
        }
      ],
      "name": "Transfer",
      "type": "event"
    },
    {
      "inputs": [
        {
          "internalType": "uint256",
          "name": "vaultId",
          "type": "uint256"
        },
        {
          "internalType": "uint256",
          "name": "stEthAmount",
          "type": "uint256"
        }
      ],
      "name": "addCollateral",
      "outputs": [],
      "stateMutability": "nonpayable",
      "type": "function"
    },
    {
      "inputs": [
        {
          "internalType": "address",
          "name": "owner",
          "type": "address"
        },
        {
          "internalType": "address",
          "name": "spender",
          "type": "address"
        }
      ],
      "name": "allowance",
      "outputs": [
        {
          "internalType": "uint256",
          "name": "",
          "type": "uint256"
        }
      ],
      "stateMutability": "view",
      "type": "function"
    },
    {
      "inputs": [
        {
          "internalType": "address",
          "name": "spender",
          "type": "address"
        },
        {
          "internalType": "uint256",
          "name": "amount",
          "type": "uint256"
        }
      ],
      "name": "approve",
      "outputs": [
        {
          "internalType": "bool",
          "name": "",
          "type": "bool"
        }
      ],
      "stateMutability": "nonpayable",
      "type": "function"
    },
    {
      "inputs": [
        {
          "internalType": "address",
          "name": "account",
          "type": "address"
        }
      ],
      "name": "balanceOf",
      "outputs": [
        {
          "internalType": "uint256",
          "name": "",
          "type": "uint256"
        }
      ],
      "stateMutability": "view",
      "type": "function"
    },
    {
      "inputs": [
        {
          "internalType": "uint256",
          "name": "vaultId",
          "type": "uint256"
        },
        {
          "internalType": "uint256",
          "name": "nuggetsAmount",
          "type": "uint256"
        }
      ],
      "name": "borrow",
      "outputs": [],
      "stateMutability": "nonpayable",
      "type": "function"
    },
    {
      "inputs": [
        {
          "internalType": "uint256",
          "name": "stEthAmount",
          "type": "uint256"
        }
      ],
      "name": "createVault",
      "outputs": [],
      "stateMutability": "nonpayable",
      "type": "function"
    },
    {
      "inputs": [],
      "name": "decimals",
      "outputs": [
        {
          "internalType": "uint8",
          "name": "",
          "type": "uint8"
        }
      ],
      "stateMutability": "view",
      "type": "function"
    },
    {
      "inputs": [
        {
          "internalType": "address",
          "name": "spender",
          "type": "address"
        },
        {
          "internalType": "uint256",
          "name": "subtractedValue",
          "type": "uint256"
        }
      ],
      "name": "decreaseAllowance",
      "outputs": [
        {
          "internalType": "bool",
          "name": "",
          "type": "bool"
        }
      ],
      "stateMutability": "nonpayable",
      "type": "function"
    },
    {
      "inputs": [],
      "name": "getGoldPriceInUsd",
      "outputs": [
        {
          "internalType": "uint256",
          "name": "",
          "type": "uint256"
        }
      ],
      "stateMutability": "view",
      "type": "function"
    },
    {
      "inputs": [
        {
          "internalType": "address",
          "name": "account",
          "type": "address"
        }
      ],
      "name": "getStethBalance",
      "outputs": [
        {
          "internalType": "uint256",
          "name": "",
          "type": "uint256"
        }
      ],
      "stateMutability": "view",
      "type": "function"
    },
    {
      "inputs": [],
      "name": "getStethPriceInUsd",
      "outputs": [
        {
          "internalType": "uint256",
          "name": "",
          "type": "uint256"
        }
      ],
      "stateMutability": "view",
      "type": "function"
    },
    {
      "inputs": [],
      "name": "goldPriceFeed",
      "outputs": [
        {
          "internalType": "contract AggregatorV3Interface",
          "name": "",
          "type": "address"
        }
      ],
      "stateMutability": "view",
      "type": "function"
    },
    {
      "inputs": [
        {
          "internalType": "address",
          "name": "spender",
          "type": "address"
        },
        {
          "internalType": "uint256",
          "name": "addedValue",
          "type": "uint256"
        }
      ],
      "name": "increaseAllowance",
      "outputs": [
        {
          "internalType": "bool",
          "name": "",
          "type": "bool"
        }
      ],
      "stateMutability": "nonpayable",
      "type": "function"
    },
    {
      "inputs": [
        {
          "internalType": "address",
          "name": "account",
          "type": "address"
        },
        {
          "internalType": "uint256",
          "name": "vaultId",
          "type": "uint256"
        }
      ],
      "name": "liquidate",
      "outputs": [],
      "stateMutability": "nonpayable",
      "type": "function"
    },
    {
      "inputs": [],
      "name": "liquidationFee",
      "outputs": [
        {
          "internalType": "uint256",
          "name": "",
          "type": "uint256"
        }
      ],
      "stateMutability": "view",
      "type": "function"
    },
    {
      "inputs": [],
      "name": "liquidationRatio",
      "outputs": [
        {
          "internalType": "uint256",
          "name": "",
          "type": "uint256"
        }
      ],
      "stateMutability": "view",
      "type": "function"
    },
    {
      "inputs": [],
      "name": "minBorrowRatio",
      "outputs": [
        {
          "internalType": "uint256",
          "name": "",
          "type": "uint256"
        }
      ],
      "stateMutability": "view",
      "type": "function"
    },
    {
      "inputs": [],
      "name": "name",
      "outputs": [
        {
          "internalType": "string",
          "name": "",
          "type": "string"
        }
      ],
      "stateMutability": "view",
      "type": "function"
    },
    {
      "inputs": [],
      "name": "owner",
      "outputs": [
        {
          "internalType": "address",
          "name": "",
          "type": "address"
        }
      ],
      "stateMutability": "view",
      "type": "function"
    },
    {
      "inputs": [
        {
          "internalType": "uint256",
          "name": "vaultId",
          "type": "uint256"
        },
        {
          "internalType": "uint256",
          "name": "stEthAmount",
          "type": "uint256"
        }
      ],
      "name": "removeCollateral",
      "outputs": [],
      "stateMutability": "nonpayable",
      "type": "function"
    },
    {
      "inputs": [],
      "name": "renounceOwnership",
      "outputs": [],
      "stateMutability": "nonpayable",
      "type": "function"
    },
    {
      "inputs": [
        {
          "internalType": "uint256",
          "name": "vaultId",
          "type": "uint256"
        },
        {
          "internalType": "uint256",
          "name": "nuggetsAmount",
          "type": "uint256"
        }
      ],
      "name": "repay",
      "outputs": [],
      "stateMutability": "nonpayable",
      "type": "function"
    },
    {
      "inputs": [],
      "name": "stETH",
      "outputs": [
        {
          "internalType": "contract IERC20",
          "name": "",
          "type": "address"
        }
      ],
      "stateMutability": "view",
      "type": "function"
    },
    {
      "inputs": [],
      "name": "stEthPriceFeed",
      "outputs": [
        {
          "internalType": "contract AggregatorV3Interface",
          "name": "",
          "type": "address"
        }
      ],
      "stateMutability": "view",
      "type": "function"
    },
    {
      "inputs": [],
      "name": "stabilityFee",
      "outputs": [
        {
          "internalType": "uint256",
          "name": "",
          "type": "uint256"
        }
      ],
      "stateMutability": "view",
      "type": "function"
    },
    {
      "inputs": [],
      "name": "symbol",
      "outputs": [
        {
          "internalType": "string",
          "name": "",
          "type": "string"
        }
      ],
      "stateMutability": "view",
      "type": "function"
    },
    {
      "inputs": [],
      "name": "totalSupply",
      "outputs": [
        {
          "internalType": "uint256",
          "name": "",
          "type": "uint256"
        }
      ],
      "stateMutability": "view",
      "type": "function"
    },
    {
      "inputs": [
        {
          "internalType": "address",
          "name": "to",
          "type": "address"
        },
        {
          "internalType": "uint256",
          "name": "amount",
          "type": "uint256"
        }
      ],
      "name": "transfer",
      "outputs": [
        {
          "internalType": "bool",
          "name": "",
          "type": "bool"
        }
      ],
      "stateMutability": "nonpayable",
      "type": "function"
    },
    {
      "inputs": [
        {
          "internalType": "address",
          "name": "from",
          "type": "address"
        },
        {
          "internalType": "address",
          "name": "to",
          "type": "address"
        },
        {
          "internalType": "uint256",
          "name": "amount",
          "type": "uint256"
        }
      ],
      "name": "transferFrom",
      "outputs": [
        {
          "internalType": "bool",
          "name": "",
          "type": "bool"
        }
      ],
      "stateMutability": "nonpayable",
      "type": "function"
    },
    {
      "inputs": [
        {
          "internalType": "address",
          "name": "newOwner",
          "type": "address"
        }
      ],
      "name": "transferOwnership",
      "outputs": [],
      "stateMutability": "nonpayable",
      "type": "function"
    },
    {
      "inputs": [
        {
          "internalType": "address",
          "name": "",
          "type": "address"
        },
        {
          "internalType": "uint256",
          "name": "",
          "type": "uint256"
        }
      ],
      "name": "vaults",
      "outputs": [
        {
          "internalType": "uint256",
          "name": "collateral",
          "type": "uint256"
        },
        {
          "internalType": "uint256",
          "name": "debt",
          "type": "uint256"
        },
        {
          "internalType": "uint256",
          "name": "stabilityFeeLastPaid",
          "type": "uint256"
        }
      ],
      "stateMutability": "view",
      "type": "function"
    }
  ],
  "bytecode": "0x608060405260c86009556096600a556005600b553480156200002057600080fd5b5060405162003d5238038062003d52833981810160405281019062000046919062000367565b6040518060400160405280600781526020017f4e756767657473000000000000000000000000000000000000000000000000008152506040518060400160405280600381526020017f4e475400000000000000000000000000000000000000000000000000000000008152508160039080519060200190620000ca929190620002a0565b508060049080519060200190620000e3929190620002a0565b50505062000106620000fa620001d260201b60201c565b620001da60201b60201c565b82600660006101000a81548173ffffffffffffffffffffffffffffffffffffffff021916908373ffffffffffffffffffffffffffffffffffffffff16021790555081600760006101000a81548173ffffffffffffffffffffffffffffffffffffffff021916908373ffffffffffffffffffffffffffffffffffffffff16021790555080600860006101000a81548173ffffffffffffffffffffffffffffffffffffffff021916908373ffffffffffffffffffffffffffffffffffffffff16021790555050505062000470565b600033905090565b6000600560009054906101000a900473ffffffffffffffffffffffffffffffffffffffff16905081600560006101000a81548173ffffffffffffffffffffffffffffffffffffffff021916908373ffffffffffffffffffffffffffffffffffffffff1602179055508173ffffffffffffffffffffffffffffffffffffffff168173ffffffffffffffffffffffffffffffffffffffff167f8be0079c531659141344cd1fd0a4f28419497f9722a3daafe3b4186f6b6457e060405160405180910390a35050565b828054620002ae90620003f1565b90600052602060002090601f016020900481019282620002d257600085556200031e565b82601f10620002ed57805160ff19168380011785556200031e565b828001600101855582156200031e579182015b828111156200031d57825182559160200191906001019062000300565b5b5090506200032d919062000331565b5090565b5b808211156200034c57600081600090555060010162000332565b5090565b600081519050620003618162000456565b92915050565b6000806000606084860312156200037d57600080fd5b60006200038d8682870162000350565b9350506020620003a08682870162000350565b9250506040620003b38682870162000350565b9150509250925092565b6000620003ca82620003d1565b9050919050565b600073ffffffffffffffffffffffffffffffffffffffff82169050919050565b600060028204905060018216806200040a57607f821691505b6020821081141562000421576200042062000427565b5b50919050565b7f4e487b7100000000000000000000000000000000000000000000000000000000600052602260045260246000fd5b6200046181620003bd565b81146200046d57600080fd5b50565b6138d280620004806000396000f3fe608060405234801561001057600080fd5b50600436106101e55760003560e01c80638da5cb5b1161010f578063b915989f116100a2578063d51ec56811610071578063d51ec56814610588578063d8aed145146105a6578063dd62ed3e146105c2578063f2fde38b146105f2576101e5565b8063b915989f14610512578063bcbaf48714610530578063c1fe3e481461054c578063c422f9d01461056a576101e5565b8063a457c2d7116100de578063a457c2d714610478578063a8f35adf146104a8578063a9059cbb146104c4578063b9098e3c146104f4576101e5565b80638da5cb5b1461040257806395d89b41146104205780639abbdf4b1461043e578063a36a36301461045a576101e5565b80633190480e116101875780636a9b1891116101565780636a9b18911461037a57806370a0823114610396578063715018a6146103c65780637bbfc69e146103d0576101e5565b80633190480e146102de578063361416e1146102fc578063395093511461031a57806343ce854a1461034a576101e5565b80631775765f116101c35780631775765f1461025457806318160ddd1461027257806323b872dd14610290578063313ce567146102c0576101e5565b806306fdde03146101ea578063095ea7b3146102085780630ecbcdab14610238575b600080fd5b6101f261060e565b6040516101ff9190613249565b60405180910390f35b610222600480360381019061021d9190612944565b6106a0565b60405161022f91906131f8565b60405180910390f35b610252600480360381019061024d91906129fb565b6106c3565b005b61025c61094f565b60405161026991906134cb565b60405180910390f35b61027a610955565b60405161028791906134cb565b60405180910390f35b6102aa60048036038101906102a591906128f5565b61095f565b6040516102b791906131f8565b60405180910390f35b6102c861098e565b6040516102d5919061351d565b60405180910390f35b6102e6610997565b6040516102f39190613213565b60405180910390f35b6103046109bd565b60405161031191906134cb565b60405180910390f35b610334600480360381019061032f9190612944565b6109c2565b60405161034191906131f8565b60405180910390f35b610364600480360381019061035f9190612890565b6109f9565b60405161037191906134cb565b60405180910390f35b610394600480360381019061038f91906129fb565b610aad565b005b6103b060048036038101906103ab9190612890565b610ccb565b6040516103bd91906134cb565b60405180910390f35b6103ce610d13565b005b6103ea60048036038101906103e59190612944565b610d27565b6040516103f9939291906134e6565b60405180910390f35b61040a610d6e565b604051610417919061317d565b60405180910390f35b610428610d98565b6040516104359190613249565b60405180910390f35b610458600480360381019061045391906129a9565b610e2a565b005b610462610f90565b60405161046f91906134cb565b60405180910390f35b610492600480360381019061048d9190612944565b610f96565b60405161049f91906131f8565b60405180910390f35b6104c260048036038101906104bd91906129fb565b61100d565b005b6104de60048036038101906104d99190612944565b61122d565b6040516104eb91906131f8565b60405180910390f35b6104fc611250565b60405161050991906134cb565b60405180910390f35b61051a611256565b60405161052791906134cb565b60405180910390f35b61054a60048036038101906105459190612944565b611359565b005b610554611799565b604051610561919061322e565b60405180910390f35b6105726117bf565b60405161057f9190613213565b60405180910390f35b6105906117e5565b60405161059d91906134cb565b60405180910390f35b6105c060048036038101906105bb91906129fb565b6118e8565b005b6105dc60048036038101906105d791906128b9565b611d9c565b6040516105e991906134cb565b60405180910390f35b61060c60048036038101906106079190612890565b611e23565b005b60606003805461061d90613759565b80601f016020809104026020016040519081016040528092919081815260200182805461064990613759565b80156106965780601f1061066b57610100808354040283529160200191610696565b820191906000526020600020905b81548152906001019060200180831161067957829003601f168201915b5050505050905090565b6000806106ab611ea7565b90506106b8818585611eaf565b600191505092915050565b6000600c60003373ffffffffffffffffffffffffffffffffffffffff1673ffffffffffffffffffffffffffffffffffffffff168152602001908152602001600020838154811061073c577f4e487b7100000000000000000000000000000000000000000000000000000000600052603260045260246000fd5b9060005260206000209060030201600001541161078e576040517f08c379a00000000000000000000000000000000000000000000000000000000081526004016107859061328b565b60405180910390fd5b60006107986117e5565b905060006107a4611256565b9050606460095482856107b791906135db565b6107c191906135db565b6107cb91906135aa565b82600c60003373ffffffffffffffffffffffffffffffffffffffff1673ffffffffffffffffffffffffffffffffffffffff1681526020019081526020016000208681548110610843577f4e487b7100000000000000000000000000000000000000000000000000000000600052603260045260246000fd5b90600052602060002090600302016000015461085f91906135db565b10156108a0576040517f08c379a00000000000000000000000000000000000000000000000000000000081526004016108979061342b565b60405180910390fd5b82600c60003373ffffffffffffffffffffffffffffffffffffffff1673ffffffffffffffffffffffffffffffffffffffff1681526020019081526020016000208581548110610918577f4e487b7100000000000000000000000000000000000000000000000000000000600052603260045260246000fd5b906000526020600020906003020160010160008282546109389190613554565b92505081905550610949338461207a565b50505050565b600a5481565b6000600254905090565b60008061096a611ea7565b90506109778582856121d1565b61098285858561225d565b60019150509392505050565b60006012905090565b600760009054906101000a900473ffffffffffffffffffffffffffffffffffffffff1681565b600181565b6000806109cd611ea7565b90506109ee8185856109df8589611d9c565b6109e99190613554565b611eaf565b600191505092915050565b6000600660009054906101000a900473ffffffffffffffffffffffffffffffffffffffff1673ffffffffffffffffffffffffffffffffffffffff166370a08231836040518263ffffffff1660e01b8152600401610a56919061317d565b60206040518083038186803b158015610a6e57600080fd5b505afa158015610a82573d6000803e3d6000fd5b505050506040513d601f19601f82011682018060405250810190610aa691906129d2565b9050919050565b80600c60003373ffffffffffffffffffffffffffffffffffffffff1673ffffffffffffffffffffffffffffffffffffffff1681526020019081526020016000208381548110610b25577f4e487b7100000000000000000000000000000000000000000000000000000000600052603260045260246000fd5b9060005260206000209060030201600001541015610b78576040517f08c379a0000000000000000000000000000000000000000000000000000000008152600401610b6f9061330b565b60405180910390fd5b600660009054906101000a900473ffffffffffffffffffffffffffffffffffffffff1673ffffffffffffffffffffffffffffffffffffffff1663a9059cbb33836040518363ffffffff1660e01b8152600401610bd59291906131cf565b602060405180830381600087803b158015610bef57600080fd5b505af1158015610c03573d6000803e3d6000fd5b505050506040513d601f19601f82011682018060405250810190610c279190612980565b5080600c60003373ffffffffffffffffffffffffffffffffffffffff1673ffffffffffffffffffffffffffffffffffffffff1681526020019081526020016000208381548110610ca0577f4e487b7100000000000000000000000000000000000000000000000000000000600052603260045260246000fd5b90600052602060002090600302016000016000828254610cc09190613635565b925050819055505050565b60008060008373ffffffffffffffffffffffffffffffffffffffff1673ffffffffffffffffffffffffffffffffffffffff168152602001908152602001600020549050919050565b610d1b6124d5565b610d256000612553565b565b600c6020528160005260406000208181548110610d4357600080fd5b9060005260206000209060030201600091509150508060000154908060010154908060020154905083565b6000600560009054906101000a900473ffffffffffffffffffffffffffffffffffffffff16905090565b606060048054610da790613759565b80601f0160208091040260200160405190810160405280929190818152602001828054610dd390613759565b8015610e205780601f10610df557610100808354040283529160200191610e20565b820191906000526020600020905b815481529060010190602001808311610e0357829003601f168201915b5050505050905090565b600660009054906101000a900473ffffffffffffffffffffffffffffffffffffffff1673ffffffffffffffffffffffffffffffffffffffff166323b872dd3330846040518463ffffffff1660e01b8152600401610e8993929190613198565b602060405180830381600087803b158015610ea357600080fd5b505af1158015610eb7573d6000803e3d6000fd5b505050506040513d601f19601f82011682018060405250810190610edb9190612980565b50610ee46127f1565b81816000018181525050600081602001818152505042816040018181525050600c60003373ffffffffffffffffffffffffffffffffffffffff1673ffffffffffffffffffffffffffffffffffffffff16815260200190815260200160002081908060018154018082558091505060019003906000526020600020906003020160009091909190915060008201518160000155602082015181600101556040820151816002015550505050565b600b5481565b600080610fa1611ea7565b90506000610faf8286611d9c565b905083811015610ff4576040517f08c379a0000000000000000000000000000000000000000000000000000000008152600401610feb9061346b565b60405180910390fd5b6110018286868403611eaf565b60019250505092915050565b6000600c60003373ffffffffffffffffffffffffffffffffffffffff1673ffffffffffffffffffffffffffffffffffffffff1681526020019081526020016000208381548110611086577f4e487b7100000000000000000000000000000000000000000000000000000000600052603260045260246000fd5b906000526020600020906003020160000154116110d8576040517f08c379a00000000000000000000000000000000000000000000000000000000081526004016110cf9061348b565b60405180910390fd5b600660009054906101000a900473ffffffffffffffffffffffffffffffffffffffff1673ffffffffffffffffffffffffffffffffffffffff166323b872dd3330846040518463ffffffff1660e01b815260040161113793929190613198565b602060405180830381600087803b15801561115157600080fd5b505af1158015611165573d6000803e3d6000fd5b505050506040513d601f19601f820116820180604052508101906111899190612980565b5080600c60003373ffffffffffffffffffffffffffffffffffffffff1673ffffffffffffffffffffffffffffffffffffffff1681526020019081526020016000208381548110611202577f4e487b7100000000000000000000000000000000000000000000000000000000600052603260045260246000fd5b906000526020600020906003020160000160008282546112229190613554565b925050819055505050565b600080611238611ea7565b905061124581858561225d565b600191505092915050565b60095481565b600080600860009054906101000a900473ffffffffffffffffffffffffffffffffffffffff1673ffffffffffffffffffffffffffffffffffffffff1663feaf968c6040518163ffffffff1660e01b815260040160a06040518083038186803b1580156112c157600080fd5b505afa1580156112d5573d6000803e3d6000fd5b505050506040513d601f19601f820116820180604052508101906112f99190612a37565b50505091505060008113611342576040517f08c379a00000000000000000000000000000000000000000000000000000000081526004016113399061344b565b60405180910390fd5b6402540be4008161135391906135db565b91505090565b60006113636117e5565b90506000600c60008573ffffffffffffffffffffffffffffffffffffffff1673ffffffffffffffffffffffffffffffffffffffff16815260200190815260200160002083815481106113de577f4e487b7100000000000000000000000000000000000000000000000000000000600052603260045260246000fd5b9060005260206000209060030201600101549050600a548161140091906135db565b606483600c60008873ffffffffffffffffffffffffffffffffffffffff1673ffffffffffffffffffffffffffffffffffffffff168152602001908152602001600020868154811061147a577f4e487b7100000000000000000000000000000000000000000000000000000000600052603260045260246000fd5b90600052602060002090600302016000015461149691906135db565b6114a091906135db565b106114e0576040517f08c379a00000000000000000000000000000000000000000000000000000000081526004016114d79061336b565b60405180910390fd5b6000600c60008673ffffffffffffffffffffffffffffffffffffffff1673ffffffffffffffffffffffffffffffffffffffff1681526020019081526020016000208481548110611559577f4e487b7100000000000000000000000000000000000000000000000000000000600052603260045260246000fd5b906000526020600020906003020160000154905060006064600b548361157f91906135db565b61158991906135aa565b905080826115979190613635565b9150600660009054906101000a900473ffffffffffffffffffffffffffffffffffffffff1673ffffffffffffffffffffffffffffffffffffffff1663a9059cbb33836040518363ffffffff1660e01b81526004016115f69291906131cf565b602060405180830381600087803b15801561161057600080fd5b505af1158015611624573d6000803e3d6000fd5b505050506040513d601f19601f820116820180604052508101906116489190612980565b50600660009054906101000a900473ffffffffffffffffffffffffffffffffffffffff1673ffffffffffffffffffffffffffffffffffffffff1663a9059cbb87846040518363ffffffff1660e01b81526004016116a69291906131cf565b602060405180830381600087803b1580156116c057600080fd5b505af11580156116d4573d6000803e3d6000fd5b505050506040513d601f19601f820116820180604052508101906116f89190612980565b506000600c60008873ffffffffffffffffffffffffffffffffffffffff1673ffffffffffffffffffffffffffffffffffffffff1681526020019081526020016000208681548110611772577f4e487b7100000000000000000000000000000000000000000000000000000000600052603260045260246000fd5b9060005260206000209060030201600001819055506117918684612619565b505050505050565b600660009054906101000a900473ffffffffffffffffffffffffffffffffffffffff1681565b600860009054906101000a900473ffffffffffffffffffffffffffffffffffffffff1681565b600080600760009054906101000a900473ffffffffffffffffffffffffffffffffffffffff1673ffffffffffffffffffffffffffffffffffffffff1663feaf968c6040518163ffffffff1660e01b815260040160a06040518083038186803b15801561185057600080fd5b505afa158015611864573d6000803e3d6000fd5b505050506040513d601f19601f820116820180604052508101906118889190612a37565b505050915050600081136118d1576040517f08c379a00000000000000000000000000000000000000000000000000000000081526004016118c89061344b565b60405180910390fd5b6402540be400816118e291906135db565b91505090565b6000600c60003373ffffffffffffffffffffffffffffffffffffffff1673ffffffffffffffffffffffffffffffffffffffff1681526020019081526020016000208381548110611961577f4e487b7100000000000000000000000000000000000000000000000000000000600052603260045260246000fd5b906000526020600020906003020160000154116119b3576040517f08c379a00000000000000000000000000000000000000000000000000000000081526004016119aa9061338b565b60405180910390fd5b6000600c60003373ffffffffffffffffffffffffffffffffffffffff1673ffffffffffffffffffffffffffffffffffffffff1681526020019081526020016000208381548110611a2c577f4e487b7100000000000000000000000000000000000000000000000000000000600052603260045260246000fd5b90600052602060002090600302016002015442611a499190613635565b905060006301e133808260646001600c60003373ffffffffffffffffffffffffffffffffffffffff1673ffffffffffffffffffffffffffffffffffffffff1681526020019081526020016000208881548110611ace577f4e487b7100000000000000000000000000000000000000000000000000000000600052603260045260246000fd5b906000526020600020906003020160010154611aea91906135db565b611af491906135aa565b611afe91906135db565b611b0891906135aa565b9050611b163360008361225d565b600081600c60003373ffffffffffffffffffffffffffffffffffffffff1673ffffffffffffffffffffffffffffffffffffffff1681526020019081526020016000208681548110611b90577f4e487b7100000000000000000000000000000000000000000000000000000000600052603260045260246000fd5b906000526020600020906003020160000154611bac9190613635565b9050600660009054906101000a900473ffffffffffffffffffffffffffffffffffffffff1673ffffffffffffffffffffffffffffffffffffffff1663a9059cbb33836040518363ffffffff1660e01b8152600401611c0b9291906131cf565b602060405180830381600087803b158015611c2557600080fd5b505af1158015611c39573d6000803e3d6000fd5b505050506040513d601f19601f82011682018060405250810190611c5d9190612980565b506000600c60003373ffffffffffffffffffffffffffffffffffffffff1673ffffffffffffffffffffffffffffffffffffffff1681526020019081526020016000208681548110611cd7577f4e487b7100000000000000000000000000000000000000000000000000000000600052603260045260246000fd5b90600052602060002090600302016000018190555083600c60003373ffffffffffffffffffffffffffffffffffffffff1673ffffffffffffffffffffffffffffffffffffffff1681526020019081526020016000208681548110611d64577f4e487b7100000000000000000000000000000000000000000000000000000000600052603260045260246000fd5b90600052602060002090600302016001016000828254611d849190613635565b92505081905550611d953385612619565b5050505050565b6000600160008473ffffffffffffffffffffffffffffffffffffffff1673ffffffffffffffffffffffffffffffffffffffff16815260200190815260200160002060008373ffffffffffffffffffffffffffffffffffffffff1673ffffffffffffffffffffffffffffffffffffffff16815260200190815260200160002054905092915050565b611e2b6124d5565b600073ffffffffffffffffffffffffffffffffffffffff168173ffffffffffffffffffffffffffffffffffffffff161415611e9b576040517f08c379a0000000000000000000000000000000000000000000000000000000008152600401611e92906132cb565b60405180910390fd5b611ea481612553565b50565b600033905090565b600073ffffffffffffffffffffffffffffffffffffffff168373ffffffffffffffffffffffffffffffffffffffff161415611f1f576040517f08c379a0000000000000000000000000000000000000000000000000000000008152600401611f169061340b565b60405180910390fd5b600073ffffffffffffffffffffffffffffffffffffffff168273ffffffffffffffffffffffffffffffffffffffff161415611f8f576040517f08c379a0000000000000000000000000000000000000000000000000000000008152600401611f86906132eb565b60405180910390fd5b80600160008573ffffffffffffffffffffffffffffffffffffffff1673ffffffffffffffffffffffffffffffffffffffff16815260200190815260200160002060008473ffffffffffffffffffffffffffffffffffffffff1673ffffffffffffffffffffffffffffffffffffffff168152602001908152602001600020819055508173ffffffffffffffffffffffffffffffffffffffff168373ffffffffffffffffffffffffffffffffffffffff167f8c5be1e5ebec7d5bd14f71427d1e84f3dd0314c0f7b2291e5b200ac8c7c3b9258360405161206d91906134cb565b60405180910390a3505050565b600073ffffffffffffffffffffffffffffffffffffffff168273ffffffffffffffffffffffffffffffffffffffff1614156120ea576040517f08c379a00000000000000000000000000000000000000000000000000000000081526004016120e1906134ab565b60405180910390fd5b6120f6600083836127e7565b80600260008282546121089190613554565b92505081905550806000808473ffffffffffffffffffffffffffffffffffffffff1673ffffffffffffffffffffffffffffffffffffffff168152602001908152602001600020600082825401925050819055508173ffffffffffffffffffffffffffffffffffffffff16600073ffffffffffffffffffffffffffffffffffffffff167fddf252ad1be2c89b69c2b068fc378daa952ba7f163c4a11628f55a4df523b3ef836040516121b991906134cb565b60405180910390a36121cd600083836127ec565b5050565b60006121dd8484611d9c565b90507fffffffffffffffffffffffffffffffffffffffffffffffffffffffffffffffff81146122575781811015612249576040517f08c379a00000000000000000000000000000000000000000000000000000000081526004016122409061332b565b60405180910390fd5b6122568484848403611eaf565b5b50505050565b600073ffffffffffffffffffffffffffffffffffffffff168373ffffffffffffffffffffffffffffffffffffffff1614156122cd576040517f08c379a00000000000000000000000000000000000000000000000000000000081526004016122c4906133eb565b60405180910390fd5b600073ffffffffffffffffffffffffffffffffffffffff168273ffffffffffffffffffffffffffffffffffffffff16141561233d576040517f08c379a00000000000000000000000000000000000000000000000000000000081526004016123349061326b565b60405180910390fd5b6123488383836127e7565b60008060008573ffffffffffffffffffffffffffffffffffffffff1673ffffffffffffffffffffffffffffffffffffffff168152602001908152602001600020549050818110156123ce576040517f08c379a00000000000000000000000000000000000000000000000000000000081526004016123c59061334b565b60405180910390fd5b8181036000808673ffffffffffffffffffffffffffffffffffffffff1673ffffffffffffffffffffffffffffffffffffffff16815260200190815260200160002081905550816000808573ffffffffffffffffffffffffffffffffffffffff1673ffffffffffffffffffffffffffffffffffffffff168152602001908152602001600020600082825401925050819055508273ffffffffffffffffffffffffffffffffffffffff168473ffffffffffffffffffffffffffffffffffffffff167fddf252ad1be2c89b69c2b068fc378daa952ba7f163c4a11628f55a4df523b3ef846040516124bc91906134cb565b60405180910390a36124cf8484846127ec565b50505050565b6124dd611ea7565b73ffffffffffffffffffffffffffffffffffffffff166124fb610d6e565b73ffffffffffffffffffffffffffffffffffffffff1614612551576040517f08c379a0000000000000000000000000000000000000000000000000000000008152600401612548906133ab565b60405180910390fd5b565b6000600560009054906101000a900473ffffffffffffffffffffffffffffffffffffffff16905081600560006101000a81548173ffffffffffffffffffffffffffffffffffffffff021916908373ffffffffffffffffffffffffffffffffffffffff1602179055508173ffffffffffffffffffffffffffffffffffffffff168173ffffffffffffffffffffffffffffffffffffffff167f8be0079c531659141344cd1fd0a4f28419497f9722a3daafe3b4186f6b6457e060405160405180910390a35050565b600073ffffffffffffffffffffffffffffffffffffffff168273ffffffffffffffffffffffffffffffffffffffff161415612689576040517f08c379a0000000000000000000000000000000000000000000000000000000008152600401612680906133cb565b60405180910390fd5b612695826000836127e7565b60008060008473ffffffffffffffffffffffffffffffffffffffff1673ffffffffffffffffffffffffffffffffffffffff1681526020019081526020016000205490508181101561271b576040517f08c379a0000000000000000000000000000000000000000000000000000000008152600401612712906132ab565b60405180910390fd5b8181036000808573ffffffffffffffffffffffffffffffffffffffff1673ffffffffffffffffffffffffffffffffffffffff1681526020019081526020016000208190555081600260008282540392505081905550600073ffffffffffffffffffffffffffffffffffffffff168373ffffffffffffffffffffffffffffffffffffffff167fddf252ad1be2c89b69c2b068fc378daa952ba7f163c4a11628f55a4df523b3ef846040516127ce91906134cb565b60405180910390a36127e2836000846127ec565b505050565b505050565b505050565b60405180606001604052806000815260200160008152602001600081525090565b60008135905061282181613829565b92915050565b60008151905061283681613840565b92915050565b60008151905061284b81613857565b92915050565b6000813590506128608161386e565b92915050565b6000815190506128758161386e565b92915050565b60008151905061288a81613885565b92915050565b6000602082840312156128a257600080fd5b60006128b084828501612812565b91505092915050565b600080604083850312156128cc57600080fd5b60006128da85828601612812565b92505060206128eb85828601612812565b9150509250929050565b60008060006060848603121561290a57600080fd5b600061291886828701612812565b935050602061292986828701612812565b925050604061293a86828701612851565b9150509250925092565b6000806040838503121561295757600080fd5b600061296585828601612812565b925050602061297685828601612851565b9150509250929050565b60006020828403121561299257600080fd5b60006129a084828501612827565b91505092915050565b6000602082840312156129bb57600080fd5b60006129c984828501612851565b91505092915050565b6000602082840312156129e457600080fd5b60006129f284828501612866565b91505092915050565b60008060408385031215612a0e57600080fd5b6000612a1c85828601612851565b9250506020612a2d85828601612851565b9150509250929050565b600080600080600060a08688031215612a4f57600080fd5b6000612a5d8882890161287b565b9550506020612a6e8882890161283c565b9450506040612a7f88828901612866565b9350506060612a9088828901612866565b9250506080612aa18882890161287b565b9150509295509295909350565b612ab781613669565b82525050565b612ac68161367b565b82525050565b612ad5816136de565b82525050565b612ae481613702565b82525050565b6000612af582613538565b612aff8185613543565b9350612b0f818560208601613726565b612b1881613818565b840191505092915050565b6000612b30602383613543565b91507f45524332303a207472616e7366657220746f20746865207a65726f206164647260008301527f65737300000000000000000000000000000000000000000000000000000000006020830152604082019050919050565b6000612b96601f83613543565b91507f4e6f20636f6c6c61746572616c20746f20626f72726f7720616761696e7374006000830152602082019050919050565b6000612bd6602283613543565b91507f45524332303a206275726e20616d6f756e7420657863656564732062616c616e60008301527f63650000000000000000000000000000000000000000000000000000000000006020830152604082019050919050565b6000612c3c602683613543565b91507f4f776e61626c653a206e6577206f776e657220697320746865207a65726f206160008301527f64647265737300000000000000000000000000000000000000000000000000006020830152604082019050919050565b6000612ca2602283613543565b91507f45524332303a20617070726f766520746f20746865207a65726f20616464726560008301527f73730000000000000000000000000000000000000000000000000000000000006020830152604082019050919050565b6000612d08601e83613543565b91507f4e6f7420656e6f75676820636f6c6c61746572616c20696e207661756c7400006000830152602082019050919050565b6000612d48601d83613543565b91507f45524332303a20696e73756666696369656e7420616c6c6f77616e63650000006000830152602082019050919050565b6000612d88602683613543565b91507f45524332303a207472616e7366657220616d6f756e742065786365656473206260008301527f616c616e636500000000000000000000000000000000000000000000000000006020830152604082019050919050565b6000612dee603783613543565b91507f43616e6e6f74206c697175696461746520612073756666696369656e746c792060008301527f636f6c6c61746572616c6973656420706f736974696f6e0000000000000000006020830152604082019050919050565b6000612e54601683613543565b91507f4e6f20636f6c6c61746572616c20746f207265706179000000000000000000006000830152602082019050919050565b6000612e94602083613543565b91507f4f776e61626c653a2063616c6c6572206973206e6f7420746865206f776e65726000830152602082019050919050565b6000612ed4602183613543565b91507f45524332303a206275726e2066726f6d20746865207a65726f2061646472657360008301527f73000000000000000000000000000000000000000000000000000000000000006020830152604082019050919050565b6000612f3a602583613543565b91507f45524332303a207472616e736665722066726f6d20746865207a65726f20616460008301527f64726573730000000000000000000000000000000000000000000000000000006020830152604082019050919050565b6000612fa0602483613543565b91507f45524332303a20617070726f76652066726f6d20746865207a65726f2061646460008301527f72657373000000000000000000000000000000000000000000000000000000006020830152604082019050919050565b6000613006601783613543565b91507f496e73756666696369656e7420636f6c6c61746572616c0000000000000000006000830152602082019050919050565b6000613046601283613543565b91507f496e76616c6964207072696365206665656400000000000000000000000000006000830152602082019050919050565b6000613086602583613543565b91507f45524332303a2064656372656173656420616c6c6f77616e63652062656c6f7760008301527f207a65726f0000000000000000000000000000000000000000000000000000006020830152604082019050919050565b60006130ec601483613543565b91507f5661756c7420646f6573206e6f742065786973740000000000000000000000006000830152602082019050919050565b600061312c601f83613543565b91507f45524332303a206d696e7420746f20746865207a65726f2061646472657373006000830152602082019050919050565b613168816136b1565b82525050565b613177816136bb565b82525050565b60006020820190506131926000830184612aae565b92915050565b60006060820190506131ad6000830186612aae565b6131ba6020830185612aae565b6131c7604083018461315f565b949350505050565b60006040820190506131e46000830185612aae565b6131f1602083018461315f565b9392505050565b600060208201905061320d6000830184612abd565b92915050565b60006020820190506132286000830184612acc565b92915050565b60006020820190506132436000830184612adb565b92915050565b600060208201905081810360008301526132638184612aea565b905092915050565b6000602082019050818103600083015261328481612b23565b9050919050565b600060208201905081810360008301526132a481612b89565b9050919050565b600060208201905081810360008301526132c481612bc9565b9050919050565b600060208201905081810360008301526132e481612c2f565b9050919050565b6000602082019050818103600083015261330481612c95565b9050919050565b6000602082019050818103600083015261332481612cfb565b9050919050565b6000602082019050818103600083015261334481612d3b565b9050919050565b6000602082019050818103600083015261336481612d7b565b9050919050565b6000602082019050818103600083015261338481612de1565b9050919050565b600060208201905081810360008301526133a481612e47565b9050919050565b600060208201905081810360008301526133c481612e87565b9050919050565b600060208201905081810360008301526133e481612ec7565b9050919050565b6000602082019050818103600083015261340481612f2d565b9050919050565b6000602082019050818103600083015261342481612f93565b9050919050565b6000602082019050818103600083015261344481612ff9565b9050919050565b6000602082019050818103600083015261346481613039565b9050919050565b6000602082019050818103600083015261348481613079565b9050919050565b600060208201905081810360008301526134a4816130df565b9050919050565b600060208201905081810360008301526134c48161311f565b9050919050565b60006020820190506134e0600083018461315f565b92915050565b60006060820190506134fb600083018661315f565b613508602083018561315f565b613515604083018461315f565b949350505050565b6000602082019050613532600083018461316e565b92915050565b600081519050919050565b600082825260208201905092915050565b600061355f826136b1565b915061356a836136b1565b9250827fffffffffffffffffffffffffffffffffffffffffffffffffffffffffffffffff0382111561359f5761359e61378b565b5b828201905092915050565b60006135b5826136b1565b91506135c0836136b1565b9250826135d0576135cf6137ba565b5b828204905092915050565b60006135e6826136b1565b91506135f1836136b1565b9250817fffffffffffffffffffffffffffffffffffffffffffffffffffffffffffffffff048311821515161561362a5761362961378b565b5b828202905092915050565b6000613640826136b1565b915061364b836136b1565b92508282101561365e5761365d61378b565b5b828203905092915050565b600061367482613691565b9050919050565b60008115159050919050565b6000819050919050565b600073ffffffffffffffffffffffffffffffffffffffff82169050919050565b6000819050919050565b600060ff82169050919050565b600069ffffffffffffffffffff82169050919050565b60006136e9826136f0565b9050919050565b60006136fb82613691565b9050919050565b600061370d82613714565b9050919050565b600061371f82613691565b9050919050565b60005b83811015613744578082015181840152602081019050613729565b83811115613753576000848401525b50505050565b6000600282049050600182168061377157607f821691505b60208210811415613785576137846137e9565b5b50919050565b7f4e487b7100000000000000000000000000000000000000000000000000000000600052601160045260246000fd5b7f4e487b7100000000000000000000000000000000000000000000000000000000600052601260045260246000fd5b7f4e487b7100000000000000000000000000000000000000000000000000000000600052602260045260246000fd5b6000601f19601f8301169050919050565b61383281613669565b811461383d57600080fd5b50565b6138498161367b565b811461385457600080fd5b50565b61386081613687565b811461386b57600080fd5b50565b613877816136b1565b811461388257600080fd5b50565b61388e816136c8565b811461389957600080fd5b5056fea26469706673582212202923cc76d8668e975f3e9c9ab85722de7444c50b96c6b9b51de6dc0b2f4e35c064736f6c63430008000033",
  "linkReferences": {},
  "deployedLinkReferences": {}
}